{
	"data": {
		"bytecode": {
			"linkReferences": {},
			"object": "608060405234801561000f575f80fd5b506040516134bf3803806134bf833981810160405281019061003191906100bc565b335f806101000a81548173ffffffffffffffffffffffffffffffffffffffff021916908373ffffffffffffffffffffffffffffffffffffffff160217905550816001819055508060028190555050506100fa565b5f80fd5b5f819050919050565b61009b81610089565b81146100a5575f80fd5b50565b5f815190506100b681610092565b92915050565b5f80604083850312156100d2576100d1610085565b5b5f6100df858286016100a8565b92505060206100f0858286016100a8565b9150509250929050565b6133b8806101075f395ff3fe60806040526004361061014a575f3560e01c80637ce1f844116100b5578063d153b60c1161006e578063d153b60c14610460578063d8bff5a51461048a578063d99822b6146104c6578063ec0f6db3146104dc578063f2b0653714610504578063fd18eaec146105455761014a565b80637ce1f8441461036257806384f2f0c41461038c5780638da5cb5b146103b6578063b5ed298a146103e0578063c3c5a54714610408578063c69ed5f2146104445761014a565b80633a66f901116101075780633a66f901146102465780633f8bd5a014610282578063408e2727146102aa5780634fe437d5146102d457806370ba3339146102fe5780637259e0f8146103265761014a565b8063163f75221461014e5780631ea736e01461018a5780631ec6b60a146101b45780632019a608146101ca5780632199d5cd146101f45780632916f2b41461021c575b5f80fd5b348015610159575f80fd5b50610174600480360381019061016f9190611f79565b61055b565b6040516101819190611fbe565b60405180910390f35b348015610195575f80fd5b5061019e6105ad565b6040516101ab9190611fef565b60405180910390f35b3480156101bf575f80fd5b506101c86105b3565b005b3480156101d5575f80fd5b506101de610728565b6040516101eb9190611fef565b60405180910390f35b3480156101ff575f80fd5b5061021a60048036038101906102159190611f79565b61072e565b005b348015610227575f80fd5b50610230610905565b60405161023d9190611fef565b60405180910390f35b348015610251575f80fd5b5061026c6004803603810190610267919061220c565b61090b565b60405161027991906122d3565b60405180910390f35b34801561028d575f80fd5b506102a860048036038101906102a391906122ec565b610ba1565b005b3480156102b5575f80fd5b506102be610c83565b6040516102cb9190611fbe565b60405180910390f35b3480156102df575f80fd5b506102e8610c95565b6040516102f59190611fef565b60405180910390f35b348015610309575f80fd5b50610324600480360381019061031f9190612354565b610c9b565b005b348015610331575f80fd5b5061034c6004803603810190610347919061237f565b610edb565b60405161035991906123b9565b60405180910390f35b34801561036d575f80fd5b50610376610f16565b6040516103839190611fef565b60405180910390f35b348015610397575f80fd5b506103a0610f1c565b6040516103ad9190611fef565b60405180910390f35b3480156103c1575f80fd5b506103ca610f22565b6040516103d791906123b9565b60405180910390f35b3480156103eb575f80fd5b5061040660048036038101906104019190611f79565b610f45565b005b348015610413575f80fd5b5061042e60048036038101906104299190611f79565b61109f565b60405161043b9190611fbe565b60405180910390f35b61045e60048036038101906104599190612354565b6110bc565b005b34801561046b575f80fd5b506104746113b0565b60405161048191906123b9565b60405180910390f35b348015610495575f80fd5b506104b060048036038101906104ab9190611f79565b6113d5565b6040516104bd9190611fef565b60405180910390f35b3480156104d1575f80fd5b506104da6113ea565b005b3480156104e7575f80fd5b5061050260048036038101906104fd9190611f79565b611643565b005b34801561050f575f80fd5b5061052a60048036038101906105259190612354565b611932565b60405161053c96959493929190612484565b60405180910390f35b348015610550575f80fd5b50610559611aa1565b005b5f60065f8373ffffffffffffffffffffffffffffffffffffffff1673ffffffffffffffffffffffffffffffffffffffff1681526020019081526020015f205f9054906101000a900460ff169050919050565b600a5481565b5f8054906101000a900473ffffffffffffffffffffffffffffffffffffffff1673ffffffffffffffffffffffffffffffffffffffff163373ffffffffffffffffffffffffffffffffffffffff1614610640576040517f08c379a00000000000000000000000000000000000000000000000000000000081526004016106379061253b565b60405180910390fd5b600c5f9054906101000a900460ff161561068f576040517f08c379a0000000000000000000000000000000000000000000000000000000008152600401610686906125a3565b60405180910390fd5b5f600580549050116106d6576040517f08c379a00000000000000000000000000000000000000000000000000000000081526004016106cd9061260b565b60405180910390fd5b426009819055506078426106ea9190612656565b600b81905550610258426106fe9190612656565b600a819055506001600c5f6101000a81548160ff021916908315150217905550610726611ca6565b565b60095481565b5f8054906101000a900473ffffffffffffffffffffffffffffffffffffffff1673ffffffffffffffffffffffffffffffffffffffff163373ffffffffffffffffffffffffffffffffffffffff16146107bb576040517f08c379a00000000000000000000000000000000000000000000000000000000081526004016107b29061253b565b60405180910390fd5b60065f8273ffffffffffffffffffffffffffffffffffffffff1673ffffffffffffffffffffffffffffffffffffffff1681526020019081526020015f205f9054906101000a900460ff1615610845576040517f08c379a000000000000000000000000000000000000000000000000000000000815260040161083c906126d3565b60405180910390fd5b600581908060018154018082558091505060019003905f5260205f20015f9091909190916101000a81548173ffffffffffffffffffffffffffffffffffffffff021916908373ffffffffffffffffffffffffffffffffffffffff160217905550600160065f8373ffffffffffffffffffffffffffffffffffffffff1673ffffffffffffffffffffffffffffffffffffffff1681526020019081526020015f205f6101000a81548160ff021916908315150217905550610902611ca6565b50565b60015481565b5f805f9054906101000a900473ffffffffffffffffffffffffffffffffffffffff1673ffffffffffffffffffffffffffffffffffffffff163373ffffffffffffffffffffffffffffffffffffffff161461099a576040517f08c379a00000000000000000000000000000000000000000000000000000000081526004016109919061253b565b60405180910390fd5b8160015481101580156109af57506002548111155b6109ee576040517f08c379a00000000000000000000000000000000000000000000000000000000081526004016109e59061273b565b60405180910390fd5b5f8787878787426109ff9190612656565b604051602001610a13959493929190612759565b6040516020818303038152906040528051906020012090506040518060c001604052808973ffffffffffffffffffffffffffffffffffffffff1681526020018881526020018781526020018681526020018542610a709190612656565b81526020015f151581525060035f8381526020019081526020015f205f820151815f015f6101000a81548173ffffffffffffffffffffffffffffffffffffffff021916908373ffffffffffffffffffffffffffffffffffffffff160217905550602082015181600101556040820151816002019081610aef91906129b2565b506060820151816003019081610b059190612ad9565b506080820151816004015560a0820151816005015f6101000a81548160ff0219169083151502179055509050508773ffffffffffffffffffffffffffffffffffffffff167f08b225eaa2af60f4ad41006fcd0da0aa9030ef99e55e43a46e50b687aa5c6573828989898942610b7a9190612656565b604051610b8b959493929190612ba8565b60405180910390a2809250505095945050505050565b5f8054906101000a900473ffffffffffffffffffffffffffffffffffffffff1673ffffffffffffffffffffffffffffffffffffffff163373ffffffffffffffffffffffffffffffffffffffff1614610c2e576040517f08c379a0000000000000000000000000000000000000000000000000000000008152600401610c259061253b565b60405180910390fd5b80821115610c71576040517f08c379a0000000000000000000000000000000000000000000000000000000008152600401610c6890612c51565b60405180910390fd5b81600181905550806002819055505050565b600c5f9054906101000a900460ff1681565b60085481565b5f8054906101000a900473ffffffffffffffffffffffffffffffffffffffff1673ffffffffffffffffffffffffffffffffffffffff163373ffffffffffffffffffffffffffffffffffffffff1614610d28576040517f08c379a0000000000000000000000000000000000000000000000000000000008152600401610d1f9061253b565b60405180910390fd5b5f73ffffffffffffffffffffffffffffffffffffffff1660035f8381526020019081526020015f205f015f9054906101000a900473ffffffffffffffffffffffffffffffffffffffff1673ffffffffffffffffffffffffffffffffffffffff1603610dc8576040517f08c379a0000000000000000000000000000000000000000000000000000000008152600401610dbf90612cb9565b60405180910390fd5b60035f8281526020019081526020015f206005015f9054906101000a900460ff1615610e29576040517f08c379a0000000000000000000000000000000000000000000000000000000008152600401610e2090612d21565b60405180910390fd5b60035f8281526020019081526020015f205f8082015f6101000a81549073ffffffffffffffffffffffffffffffffffffffff0219169055600182015f9055600282015f610e769190611e79565b600382015f610e859190611eb6565b600482015f9055600582015f6101000a81549060ff021916905550507f0891e6c675e964cf1e5982f60fda276ad06301a9221b2f1d7bf2b2a42fbd69a181604051610ed091906122d3565b60405180910390a150565b60058181548110610eea575f80fd5b905f5260205f20015f915054906101000a900473ffffffffffffffffffffffffffffffffffffffff1681565b600b5481565b60025481565b5f8054906101000a900473ffffffffffffffffffffffffffffffffffffffff1681565b600b54421115610f8a576040517f08c379a0000000000000000000000000000000000000000000000000000000008152600401610f8190612d89565b60405180910390fd5b5f73ffffffffffffffffffffffffffffffffffffffff1660075f9054906101000a900473ffffffffffffffffffffffffffffffffffffffff1673ffffffffffffffffffffffffffffffffffffffff1614611019576040517f08c379a000000000000000000000000000000000000000000000000000000000815260040161101090612df1565b60405180910390fd5b8060075f6101000a81548173ffffffffffffffffffffffffffffffffffffffff021916908373ffffffffffffffffffffffffffffffffffffffff1602179055508073ffffffffffffffffffffffffffffffffffffffff167fa50821a7869f90dcef86915c08ff04d916de378b5eadd9a9009e619f3b9b939060405160405180910390a250565b6006602052805f5260405f205f915054906101000a900460ff1681565b5f8054906101000a900473ffffffffffffffffffffffffffffffffffffffff1673ffffffffffffffffffffffffffffffffffffffff163373ffffffffffffffffffffffffffffffffffffffff1614611149576040517f08c379a00000000000000000000000000000000000000000000000000000000081526004016111409061253b565b60405180910390fd5b5f60035f8381526020019081526020015f2090505f73ffffffffffffffffffffffffffffffffffffffff16815f015f9054906101000a900473ffffffffffffffffffffffffffffffffffffffff1673ffffffffffffffffffffffffffffffffffffffff16036111ed576040517f08c379a00000000000000000000000000000000000000000000000000000000081526004016111e490612cb9565b60405180910390fd5b806005015f9054906101000a900460ff161561123e576040517f08c379a000000000000000000000000000000000000000000000000000000000815260040161123590612d21565b60405180910390fd5b8060040154421015611285576040517f08c379a000000000000000000000000000000000000000000000000000000000815260040161127c90612e59565b60405180910390fd5b5f815f015f9054906101000a900473ffffffffffffffffffffffffffffffffffffffff1673ffffffffffffffffffffffffffffffffffffffff168260010154836003016040516112d59190612f01565b5f6040518083038185875af1925050503d805f811461130f576040519150601f19603f3d011682016040523d82523d5f602084013e611314565b606091505b5050905080611358576040517f08c379a000000000000000000000000000000000000000000000000000000000815260040161134f90612f61565b60405180910390fd5b6001826005015f6101000a81548160ff0219169083151502179055507f862d83c6c5af275e697bfd4e27c8323c196b44bdd011dd9aaab6db0ec9943dce836040516113a391906122d3565b60405180910390a1505050565b60075f9054906101000a900473ffffffffffffffffffffffffffffffffffffffff1681565b6004602052805f5260405f205f915090505481565b600b5442101580156113fe5750600a544211155b61143d576040517f08c379a000000000000000000000000000000000000000000000000000000000815260040161143490612fc9565b60405180910390fd5b5f73ffffffffffffffffffffffffffffffffffffffff1660075f9054906101000a900473ffffffffffffffffffffffffffffffffffffffff1673ffffffffffffffffffffffffffffffffffffffff16036114cc576040517f08c379a00000000000000000000000000000000000000000000000000000000081526004016114c390613031565b60405180910390fd5b60065f3373ffffffffffffffffffffffffffffffffffffffff1673ffffffffffffffffffffffffffffffffffffffff1681526020019081526020015f205f9054906101000a900460ff16611555576040517f08c379a000000000000000000000000000000000000000000000000000000000815260040161154c90613099565b60405180910390fd5b5f60045f3373ffffffffffffffffffffffffffffffffffffffff1673ffffffffffffffffffffffffffffffffffffffff1681526020019081526020015f2054146115d4576040517f08c379a00000000000000000000000000000000000000000000000000000000081526004016115cb90613101565b60405180910390fd5b600160045f3373ffffffffffffffffffffffffffffffffffffffff1673ffffffffffffffffffffffffffffffffffffffff1681526020019081526020015f205f8282546116219190612656565b92505081905550600854611633611cdd565b1061164157611640611aa1565b5b565b5f8054906101000a900473ffffffffffffffffffffffffffffffffffffffff1673ffffffffffffffffffffffffffffffffffffffff163373ffffffffffffffffffffffffffffffffffffffff16146116d0576040517f08c379a00000000000000000000000000000000000000000000000000000000081526004016116c79061253b565b60405180910390fd5b60065f8273ffffffffffffffffffffffffffffffffffffffff1673ffffffffffffffffffffffffffffffffffffffff1681526020019081526020015f205f9054906101000a900460ff16611759576040517f08c379a000000000000000000000000000000000000000000000000000000000815260040161175090613169565b60405180910390fd5b5f5b6005805490508110156118d2578173ffffffffffffffffffffffffffffffffffffffff166005828154811061179357611792613187565b5b905f5260205f20015f9054906101000a900473ffffffffffffffffffffffffffffffffffffffff1673ffffffffffffffffffffffffffffffffffffffff16036118c557600560016005805490506117ea91906131b4565b815481106117fb576117fa613187565b5b905f5260205f20015f9054906101000a900473ffffffffffffffffffffffffffffffffffffffff166005828154811061183757611836613187565b5b905f5260205f20015f6101000a81548173ffffffffffffffffffffffffffffffffffffffff021916908373ffffffffffffffffffffffffffffffffffffffff160217905550600580548061188e5761188d6131e7565b5b600190038181905f5260205f20015f6101000a81549073ffffffffffffffffffffffffffffffffffffffff021916905590556118d2565b808060010191505061175b565b505f60065f8373ffffffffffffffffffffffffffffffffffffffff1673ffffffffffffffffffffffffffffffffffffffff1681526020019081526020015f205f6101000a81548160ff02191690831515021790555061192f611ca6565b50565b6003602052805f5260405f205f91509050805f015f9054906101000a900473ffffffffffffffffffffffffffffffffffffffff169080600101549080600201805461197c906127e5565b80601f01602080910402602001604051908101604052809291908181526020018280546119a8906127e5565b80156119f35780601f106119ca576101008083540402835291602001916119f3565b820191905f5260205f20905b8154815290600101906020018083116119d657829003601f168201915b505050505090806003018054611a08906127e5565b80601f0160208091040260200160405190810160405280929190818152602001828054611a34906127e5565b8015611a7f5780601f10611a5657610100808354040283529160200191611a7f565b820191905f5260205f20905b815481529060010190602001808311611a6257829003601f168201915b505050505090806004015490806005015f9054906101000a900460ff16905086565b600a544211611ae5576040517f08c379a0000000000000000000000000000000000000000000000000000000008152600401611adc9061325e565b60405180910390fd5b5f73ffffffffffffffffffffffffffffffffffffffff1660075f9054906101000a900473ffffffffffffffffffffffffffffffffffffffff1673ffffffffffffffffffffffffffffffffffffffff1603611b74576040517f08c379a0000000000000000000000000000000000000000000000000000000008152600401611b6b906132c6565b60405180910390fd5b60075f9054906101000a900473ffffffffffffffffffffffffffffffffffffffff165f806101000a81548173ffffffffffffffffffffffffffffffffffffffff021916908373ffffffffffffffffffffffffffffffffffffffff16021790555060075f9054906101000a900473ffffffffffffffffffffffffffffffffffffffff1673ffffffffffffffffffffffffffffffffffffffff167fa2ea9883a321a3e97b8266c2b078bfeec6d50c711ed71f874a90d500ae2eaf3660405160405180910390a260075f9054906101000a900473ffffffffffffffffffffffffffffffffffffffff1673ffffffffffffffffffffffffffffffffffffffff167f632d764abfaaa0b14481c6a74ffc7ee7e9a8490097cdc054de8c42239a62e1c560405160405180910390a2611ca4611d84565b565b5f600580549050905060646063603383611cc091906132e4565b611cca9190612656565b611cd49190613352565b60088190555050565b5f805b600580549050811015611d805760045f60058381548110611d0457611d03613187565b5b905f5260205f20015f9054906101000a900473ffffffffffffffffffffffffffffffffffffffff1673ffffffffffffffffffffffffffffffffffffffff1673ffffffffffffffffffffffffffffffffffffffff1681526020019081526020015f205482611d719190612656565b91508080600101915050611ce0565b5090565b5f60075f6101000a81548173ffffffffffffffffffffffffffffffffffffffff021916908373ffffffffffffffffffffffffffffffffffffffff1602179055505f600c5f6101000a81548160ff0219169083151502179055505f5b600580549050811015611e76575f60045f60058481548110611e0457611e03613187565b5b905f5260205f20015f9054906101000a900473ffffffffffffffffffffffffffffffffffffffff1673ffffffffffffffffffffffffffffffffffffffff1673ffffffffffffffffffffffffffffffffffffffff1681526020019081526020015f20819055508080600101915050611ddf565b50565b508054611e85906127e5565b5f825580601f10611e965750611eb3565b601f0160209004905f5260205f2090810190611eb29190611ef3565b5b50565b508054611ec2906127e5565b5f825580601f10611ed35750611ef0565b601f0160209004905f5260205f2090810190611eef9190611ef3565b5b50565b5b80821115611f0a575f815f905550600101611ef4565b5090565b5f604051905090565b5f80fd5b5f80fd5b5f73ffffffffffffffffffffffffffffffffffffffff82169050919050565b5f611f4882611f1f565b9050919050565b611f5881611f3e565b8114611f62575f80fd5b50565b5f81359050611f7381611f4f565b92915050565b5f60208284031215611f8e57611f8d611f17565b5b5f611f9b84828501611f65565b91505092915050565b5f8115159050919050565b611fb881611fa4565b82525050565b5f602082019050611fd15f830184611faf565b92915050565b5f819050919050565b611fe981611fd7565b82525050565b5f6020820190506120025f830184611fe0565b92915050565b61201181611fd7565b811461201b575f80fd5b50565b5f8135905061202c81612008565b92915050565b5f80fd5b5f80fd5b5f601f19601f8301169050919050565b7f4e487b71000000000000000000000000000000000000000000000000000000005f52604160045260245ffd5b6120808261203a565b810181811067ffffffffffffffff8211171561209f5761209e61204a565b5b80604052505050565b5f6120b1611f0e565b90506120bd8282612077565b919050565b5f67ffffffffffffffff8211156120dc576120db61204a565b5b6120e58261203a565b9050602081019050919050565b828183375f83830152505050565b5f61211261210d846120c2565b6120a8565b90508281526020810184848401111561212e5761212d612036565b5b6121398482856120f2565b509392505050565b5f82601f83011261215557612154612032565b5b8135612165848260208601612100565b91505092915050565b5f67ffffffffffffffff8211156121885761218761204a565b5b6121918261203a565b9050602081019050919050565b5f6121b06121ab8461216e565b6120a8565b9050828152602081018484840111156121cc576121cb612036565b5b6121d78482856120f2565b509392505050565b5f82601f8301126121f3576121f2612032565b5b813561220384826020860161219e565b91505092915050565b5f805f805f60a0868803121561222557612224611f17565b5b5f61223288828901611f65565b95505060206122438882890161201e565b945050604086013567ffffffffffffffff81111561226457612263611f1b565b5b61227088828901612141565b935050606086013567ffffffffffffffff81111561229157612290611f1b565b5b61229d888289016121df565b92505060806122ae8882890161201e565b9150509295509295909350565b5f819050919050565b6122cd816122bb565b82525050565b5f6020820190506122e65f8301846122c4565b92915050565b5f806040838503121561230257612301611f17565b5b5f61230f8582860161201e565b92505060206123208582860161201e565b9150509250929050565b612333816122bb565b811461233d575f80fd5b50565b5f8135905061234e8161232a565b92915050565b5f6020828403121561236957612368611f17565b5b5f61237684828501612340565b91505092915050565b5f6020828403121561239457612393611f17565b5b5f6123a18482850161201e565b91505092915050565b6123b381611f3e565b82525050565b5f6020820190506123cc5f8301846123aa565b92915050565b5f81519050919050565b5f82825260208201905092915050565b8281835e5f83830152505050565b5f612404826123d2565b61240e81856123dc565b935061241e8185602086016123ec565b6124278161203a565b840191505092915050565b5f81519050919050565b5f82825260208201905092915050565b5f61245682612432565b612460818561243c565b93506124708185602086016123ec565b6124798161203a565b840191505092915050565b5f60c0820190506124975f8301896123aa565b6124a46020830188611fe0565b81810360408301526124b681876123fa565b905081810360608301526124ca818661244c565b90506124d96080830185611fe0565b6124e660a0830184611faf565b979650505050505050565b7f4f6e6c79206f776e65722063616e206578656375746520746869732e000000005f82015250565b5f612525601c836123dc565b9150612530826124f1565b602082019050919050565b5f6020820190508181035f83015261255281612519565b9050919050565b7f566f74696e6720697320616c7265616479206163746976652e000000000000005f82015250565b5f61258d6019836123dc565b915061259882612559565b602082019050919050565b5f6020820190508181035f8301526125ba81612581565b9050919050565b7f4e6f207265676973746572656420757365727320617661696c61626c652e00005f82015250565b5f6125f5601e836123dc565b9150612600826125c1565b602082019050919050565b5f6020820190508181035f830152612622816125e9565b9050919050565b7f4e487b71000000000000000000000000000000000000000000000000000000005f52601160045260245ffd5b5f61266082611fd7565b915061266b83611fd7565b925082820190508082111561268357612682612629565b5b92915050565b7f5573657220616c726561647920726567697374657265642e00000000000000005f82015250565b5f6126bd6018836123dc565b91506126c882612689565b602082019050919050565b5f6020820190508181035f8301526126ea816126b1565b9050919050565b7f496e76616c696420677261636520706572696f642e00000000000000000000005f82015250565b5f6127256015836123dc565b9150612730826126f1565b602082019050919050565b5f6020820190508181035f83015261275281612719565b9050919050565b5f60a08201905061276c5f8301886123aa565b6127796020830187611fe0565b818103604083015261278b81866123fa565b9050818103606083015261279f818561244c565b90506127ae6080830184611fe0565b9695505050505050565b7f4e487b71000000000000000000000000000000000000000000000000000000005f52602260045260245ffd5b5f60028204905060018216806127fc57607f821691505b60208210810361280f5761280e6127b8565b5b50919050565b5f819050815f5260205f209050919050565b5f6020601f8301049050919050565b5f82821b905092915050565b5f600883026128717fffffffffffffffffffffffffffffffffffffffffffffffffffffffffffffffff82612836565b61287b8683612836565b95508019841693508086168417925050509392505050565b5f819050919050565b5f6128b66128b16128ac84611fd7565b612893565b611fd7565b9050919050565b5f819050919050565b6128cf8361289c565b6128e36128db826128bd565b848454612842565b825550505050565b5f90565b6128f76128eb565b6129028184846128c6565b505050565b5b818110156129255761291a5f826128ef565b600181019050612908565b5050565b601f82111561296a5761293b81612815565b61294484612827565b81016020851015612953578190505b61296761295f85612827565b830182612907565b50505b505050565b5f82821c905092915050565b5f61298a5f198460080261296f565b1980831691505092915050565b5f6129a2838361297b565b9150826002028217905092915050565b6129bb826123d2565b67ffffffffffffffff8111156129d4576129d361204a565b5b6129de82546127e5565b6129e9828285612929565b5f60209050601f831160018114612a1a575f8415612a08578287015190505b612a128582612997565b865550612a79565b601f198416612a2886612815565b5f5b82811015612a4f57848901518255600182019150602085019450602081019050612a2a565b86831015612a6c5784890151612a68601f89168261297b565b8355505b6001600288020188555050505b505050505050565b5f819050815f5260205f209050919050565b601f821115612ad457612aa581612a81565b612aae84612827565b81016020851015612abd578190505b612ad1612ac985612827565b830182612907565b50505b505050565b612ae282612432565b67ffffffffffffffff811115612afb57612afa61204a565b5b612b0582546127e5565b612b10828285612a93565b5f60209050601f831160018114612b41575f8415612b2f578287015190505b612b398582612997565b865550612ba0565b601f198416612b4f86612a81565b5f5b82811015612b7657848901518255600182019150602085019450602081019050612b51565b86831015612b935784890151612b8f601f89168261297b565b8355505b6001600288020188555050505b505050505050565b5f60a082019050612bbb5f8301886122c4565b612bc86020830187611fe0565b8181036040830152612bda81866123fa565b90508181036060830152612bee818561244c565b9050612bfd6080830184611fe0565b9695505050505050565b7f496e76616c696420677261636520706572696f642072616e67652e00000000005f82015250565b5f612c3b601b836123dc565b9150612c4682612c07565b602082019050919050565b5f6020820190508181035f830152612c6881612c2f565b9050919050565b7f5472616e73616374696f6e20646f6573206e6f742065786973742e00000000005f82015250565b5f612ca3601b836123dc565b9150612cae82612c6f565b602082019050919050565b5f6020820190508181035f830152612cd081612c97565b9050919050565b7f5472616e73616374696f6e20616c72656164792065786563757465642e0000005f82015250565b5f612d0b601d836123dc565b9150612d1682612cd7565b602082019050919050565b5f6020820190508181035f830152612d3881612cff565b9050919050565b7f50726f706f73616c2070686173652068617320656e6465642e000000000000005f82015250565b5f612d736019836123dc565b9150612d7e82612d3f565b602082019050919050565b5f6020820190508181035f830152612da081612d67565b9050919050565b7f4f776e657220697320616c72656164792070726f706f7365642e0000000000005f82015250565b5f612ddb601a836123dc565b9150612de682612da7565b602082019050919050565b5f6020820190508181035f830152612e0881612dcf565b9050919050565b7f5472616e73616374696f6e206973207374696c6c206c6f636b65642e000000005f82015250565b5f612e43601c836123dc565b9150612e4e82612e0f565b602082019050919050565b5f6020820190508181035f830152612e7081612e37565b9050919050565b5f81905092915050565b5f8154612e8d816127e5565b612e978186612e77565b9450600182165f8114612eb15760018114612ec657612ef8565b60ff1983168652811515820286019350612ef8565b612ecf85612a81565b5f5b83811015612ef057815481890152600182019150602081019050612ed1565b838801955050505b50505092915050565b5f612f0c8284612e81565b915081905092915050565b7f5472616e73616374696f6e206661696c65642e000000000000000000000000005f82015250565b5f612f4b6013836123dc565b9150612f5682612f17565b602082019050919050565b5f6020820190508181035f830152612f7881612f3f565b9050919050565b7f566f74696e67207068617365206973206e6f74206163746976652e00000000005f82015250565b5f612fb3601b836123dc565b9150612fbe82612f7f565b602082019050919050565b5f6020820190508181035f830152612fe081612fa7565b9050919050565b7f4e6f206f776e65722070726f706f7365642e00000000000000000000000000005f82015250565b5f61301b6012836123dc565b915061302682612fe7565b602082019050919050565b5f6020820190508181035f8301526130488161300f565b9050919050565b7f4f6e6c7920726567697374657265642075736572732063616e20766f74652e005f82015250565b5f613083601f836123dc565b915061308e8261304f565b602082019050919050565b5f6020820190508181035f8301526130b081613077565b9050919050565b7f416c726561647920766f7465642e0000000000000000000000000000000000005f82015250565b5f6130eb600e836123dc565b91506130f6826130b7565b602082019050919050565b5f6020820190508181035f830152613118816130df565b9050919050565b7f55736572206e6f7420726567697374657265642e0000000000000000000000005f82015250565b5f6131536014836123dc565b915061315e8261311f565b602082019050919050565b5f6020820190508181035f83015261318081613147565b9050919050565b7f4e487b71000000000000000000000000000000000000000000000000000000005f52603260045260245ffd5b5f6131be82611fd7565b91506131c983611fd7565b92508282039050818111156131e1576131e0612629565b5b92915050565b7f4e487b71000000000000000000000000000000000000000000000000000000005f52603160045260245ffd5b7f566f74696e6720706572696f6420686173206e6f7420656e6465642e000000005f82015250565b5f613248601c836123dc565b915061325382613214565b602082019050919050565b5f6020820190508181035f8301526132758161323c565b9050919050565b7f4e6f2070726f706f736564206f776e65722e00000000000000000000000000005f82015250565b5f6132b06012836123dc565b91506132bb8261327c565b602082019050919050565b5f6020820190508181035f8301526132dd816132a4565b9050919050565b5f6132ee82611fd7565b91506132f983611fd7565b925082820261330781611fd7565b9150828204841483151761331e5761331d612629565b5b5092915050565b7f4e487b71000000000000000000000000000000000000000000000000000000005f52601260045260245ffd5b5f61335c82611fd7565b915061336783611fd7565b92508261337757613376613325565b5b82820490509291505056fea2646970667358221220bd42f3ed293dc21324e5f3801d446283558c7013ca48a602d5139472890ff5dd64736f6c634300081a0033",
			"opcodes": "PUSH1 0x80 PUSH1 0x40 MSTORE CALLVALUE DUP1 ISZERO PUSH2 0xF JUMPI PUSH0 DUP1 REVERT JUMPDEST POP PUSH1 0x40 MLOAD PUSH2 0x34BF CODESIZE SUB DUP1 PUSH2 0x34BF DUP4 CODECOPY DUP2 DUP2 ADD PUSH1 0x40 MSTORE DUP2 ADD SWAP1 PUSH2 0x31 SWAP2 SWAP1 PUSH2 0xBC JUMP JUMPDEST CALLER PUSH0 DUP1 PUSH2 0x100 EXP DUP2 SLOAD DUP2 PUSH20 0xFFFFFFFFFFFFFFFFFFFFFFFFFFFFFFFFFFFFFFFF MUL NOT AND SWAP1 DUP4 PUSH20 0xFFFFFFFFFFFFFFFFFFFFFFFFFFFFFFFFFFFFFFFF AND MUL OR SWAP1 SSTORE POP DUP2 PUSH1 0x1 DUP2 SWAP1 SSTORE POP DUP1 PUSH1 0x2 DUP2 SWAP1 SSTORE POP POP POP PUSH2 0xFA JUMP JUMPDEST PUSH0 DUP1 REVERT JUMPDEST PUSH0 DUP2 SWAP1 POP SWAP2 SWAP1 POP JUMP JUMPDEST PUSH2 0x9B DUP2 PUSH2 0x89 JUMP JUMPDEST DUP2 EQ PUSH2 0xA5 JUMPI PUSH0 DUP1 REVERT JUMPDEST POP JUMP JUMPDEST PUSH0 DUP2 MLOAD SWAP1 POP PUSH2 0xB6 DUP2 PUSH2 0x92 JUMP JUMPDEST SWAP3 SWAP2 POP POP JUMP JUMPDEST PUSH0 DUP1 PUSH1 0x40 DUP4 DUP6 SUB SLT ISZERO PUSH2 0xD2 JUMPI PUSH2 0xD1 PUSH2 0x85 JUMP JUMPDEST JUMPDEST PUSH0 PUSH2 0xDF DUP6 DUP3 DUP7 ADD PUSH2 0xA8 JUMP JUMPDEST SWAP3 POP POP PUSH1 0x20 PUSH2 0xF0 DUP6 DUP3 DUP7 ADD PUSH2 0xA8 JUMP JUMPDEST SWAP2 POP POP SWAP3 POP SWAP3 SWAP1 POP JUMP JUMPDEST PUSH2 0x33B8 DUP1 PUSH2 0x107 PUSH0 CODECOPY PUSH0 RETURN INVALID PUSH1 0x80 PUSH1 0x40 MSTORE PUSH1 0x4 CALLDATASIZE LT PUSH2 0x14A JUMPI PUSH0 CALLDATALOAD PUSH1 0xE0 SHR DUP1 PUSH4 0x7CE1F844 GT PUSH2 0xB5 JUMPI DUP1 PUSH4 0xD153B60C GT PUSH2 0x6E JUMPI DUP1 PUSH4 0xD153B60C EQ PUSH2 0x460 JUMPI DUP1 PUSH4 0xD8BFF5A5 EQ PUSH2 0x48A JUMPI DUP1 PUSH4 0xD99822B6 EQ PUSH2 0x4C6 JUMPI DUP1 PUSH4 0xEC0F6DB3 EQ PUSH2 0x4DC JUMPI DUP1 PUSH4 0xF2B06537 EQ PUSH2 0x504 JUMPI DUP1 PUSH4 0xFD18EAEC EQ PUSH2 0x545 JUMPI PUSH2 0x14A JUMP JUMPDEST DUP1 PUSH4 0x7CE1F844 EQ PUSH2 0x362 JUMPI DUP1 PUSH4 0x84F2F0C4 EQ PUSH2 0x38C JUMPI DUP1 PUSH4 0x8DA5CB5B EQ PUSH2 0x3B6 JUMPI DUP1 PUSH4 0xB5ED298A EQ PUSH2 0x3E0 JUMPI DUP1 PUSH4 0xC3C5A547 EQ PUSH2 0x408 JUMPI DUP1 PUSH4 0xC69ED5F2 EQ PUSH2 0x444 JUMPI PUSH2 0x14A JUMP JUMPDEST DUP1 PUSH4 0x3A66F901 GT PUSH2 0x107 JUMPI DUP1 PUSH4 0x3A66F901 EQ PUSH2 0x246 JUMPI DUP1 PUSH4 0x3F8BD5A0 EQ PUSH2 0x282 JUMPI DUP1 PUSH4 0x408E2727 EQ PUSH2 0x2AA JUMPI DUP1 PUSH4 0x4FE437D5 EQ PUSH2 0x2D4 JUMPI DUP1 PUSH4 0x70BA3339 EQ PUSH2 0x2FE JUMPI DUP1 PUSH4 0x7259E0F8 EQ PUSH2 0x326 JUMPI PUSH2 0x14A JUMP JUMPDEST DUP1 PUSH4 0x163F7522 EQ PUSH2 0x14E JUMPI DUP1 PUSH4 0x1EA736E0 EQ PUSH2 0x18A JUMPI DUP1 PUSH4 0x1EC6B60A EQ PUSH2 0x1B4 JUMPI DUP1 PUSH4 0x2019A608 EQ PUSH2 0x1CA JUMPI DUP1 PUSH4 0x2199D5CD EQ PUSH2 0x1F4 JUMPI DUP1 PUSH4 0x2916F2B4 EQ PUSH2 0x21C JUMPI JUMPDEST PUSH0 DUP1 REVERT JUMPDEST CALLVALUE DUP1 ISZERO PUSH2 0x159 JUMPI PUSH0 DUP1 REVERT JUMPDEST POP PUSH2 0x174 PUSH1 0x4 DUP1 CALLDATASIZE SUB DUP2 ADD SWAP1 PUSH2 0x16F SWAP2 SWAP1 PUSH2 0x1F79 JUMP JUMPDEST PUSH2 0x55B JUMP JUMPDEST PUSH1 0x40 MLOAD PUSH2 0x181 SWAP2 SWAP1 PUSH2 0x1FBE JUMP JUMPDEST PUSH1 0x40 MLOAD DUP1 SWAP2 SUB SWAP1 RETURN JUMPDEST CALLVALUE DUP1 ISZERO PUSH2 0x195 JUMPI PUSH0 DUP1 REVERT JUMPDEST POP PUSH2 0x19E PUSH2 0x5AD JUMP JUMPDEST PUSH1 0x40 MLOAD PUSH2 0x1AB SWAP2 SWAP1 PUSH2 0x1FEF JUMP JUMPDEST PUSH1 0x40 MLOAD DUP1 SWAP2 SUB SWAP1 RETURN JUMPDEST CALLVALUE DUP1 ISZERO PUSH2 0x1BF JUMPI PUSH0 DUP1 REVERT JUMPDEST POP PUSH2 0x1C8 PUSH2 0x5B3 JUMP JUMPDEST STOP JUMPDEST CALLVALUE DUP1 ISZERO PUSH2 0x1D5 JUMPI PUSH0 DUP1 REVERT JUMPDEST POP PUSH2 0x1DE PUSH2 0x728 JUMP JUMPDEST PUSH1 0x40 MLOAD PUSH2 0x1EB SWAP2 SWAP1 PUSH2 0x1FEF JUMP JUMPDEST PUSH1 0x40 MLOAD DUP1 SWAP2 SUB SWAP1 RETURN JUMPDEST CALLVALUE DUP1 ISZERO PUSH2 0x1FF JUMPI PUSH0 DUP1 REVERT JUMPDEST POP PUSH2 0x21A PUSH1 0x4 DUP1 CALLDATASIZE SUB DUP2 ADD SWAP1 PUSH2 0x215 SWAP2 SWAP1 PUSH2 0x1F79 JUMP JUMPDEST PUSH2 0x72E JUMP JUMPDEST STOP JUMPDEST CALLVALUE DUP1 ISZERO PUSH2 0x227 JUMPI PUSH0 DUP1 REVERT JUMPDEST POP PUSH2 0x230 PUSH2 0x905 JUMP JUMPDEST PUSH1 0x40 MLOAD PUSH2 0x23D SWAP2 SWAP1 PUSH2 0x1FEF JUMP JUMPDEST PUSH1 0x40 MLOAD DUP1 SWAP2 SUB SWAP1 RETURN JUMPDEST CALLVALUE DUP1 ISZERO PUSH2 0x251 JUMPI PUSH0 DUP1 REVERT JUMPDEST POP PUSH2 0x26C PUSH1 0x4 DUP1 CALLDATASIZE SUB DUP2 ADD SWAP1 PUSH2 0x267 SWAP2 SWAP1 PUSH2 0x220C JUMP JUMPDEST PUSH2 0x90B JUMP JUMPDEST PUSH1 0x40 MLOAD PUSH2 0x279 SWAP2 SWAP1 PUSH2 0x22D3 JUMP JUMPDEST PUSH1 0x40 MLOAD DUP1 SWAP2 SUB SWAP1 RETURN JUMPDEST CALLVALUE DUP1 ISZERO PUSH2 0x28D JUMPI PUSH0 DUP1 REVERT JUMPDEST POP PUSH2 0x2A8 PUSH1 0x4 DUP1 CALLDATASIZE SUB DUP2 ADD SWAP1 PUSH2 0x2A3 SWAP2 SWAP1 PUSH2 0x22EC JUMP JUMPDEST PUSH2 0xBA1 JUMP JUMPDEST STOP JUMPDEST CALLVALUE DUP1 ISZERO PUSH2 0x2B5 JUMPI PUSH0 DUP1 REVERT JUMPDEST POP PUSH2 0x2BE PUSH2 0xC83 JUMP JUMPDEST PUSH1 0x40 MLOAD PUSH2 0x2CB SWAP2 SWAP1 PUSH2 0x1FBE JUMP JUMPDEST PUSH1 0x40 MLOAD DUP1 SWAP2 SUB SWAP1 RETURN JUMPDEST CALLVALUE DUP1 ISZERO PUSH2 0x2DF JUMPI PUSH0 DUP1 REVERT JUMPDEST POP PUSH2 0x2E8 PUSH2 0xC95 JUMP JUMPDEST PUSH1 0x40 MLOAD PUSH2 0x2F5 SWAP2 SWAP1 PUSH2 0x1FEF JUMP JUMPDEST PUSH1 0x40 MLOAD DUP1 SWAP2 SUB SWAP1 RETURN JUMPDEST CALLVALUE DUP1 ISZERO PUSH2 0x309 JUMPI PUSH0 DUP1 REVERT JUMPDEST POP PUSH2 0x324 PUSH1 0x4 DUP1 CALLDATASIZE SUB DUP2 ADD SWAP1 PUSH2 0x31F SWAP2 SWAP1 PUSH2 0x2354 JUMP JUMPDEST PUSH2 0xC9B JUMP JUMPDEST STOP JUMPDEST CALLVALUE DUP1 ISZERO PUSH2 0x331 JUMPI PUSH0 DUP1 REVERT JUMPDEST POP PUSH2 0x34C PUSH1 0x4 DUP1 CALLDATASIZE SUB DUP2 ADD SWAP1 PUSH2 0x347 SWAP2 SWAP1 PUSH2 0x237F JUMP JUMPDEST PUSH2 0xEDB JUMP JUMPDEST PUSH1 0x40 MLOAD PUSH2 0x359 SWAP2 SWAP1 PUSH2 0x23B9 JUMP JUMPDEST PUSH1 0x40 MLOAD DUP1 SWAP2 SUB SWAP1 RETURN JUMPDEST CALLVALUE DUP1 ISZERO PUSH2 0x36D JUMPI PUSH0 DUP1 REVERT JUMPDEST POP PUSH2 0x376 PUSH2 0xF16 JUMP JUMPDEST PUSH1 0x40 MLOAD PUSH2 0x383 SWAP2 SWAP1 PUSH2 0x1FEF JUMP JUMPDEST PUSH1 0x40 MLOAD DUP1 SWAP2 SUB SWAP1 RETURN JUMPDEST CALLVALUE DUP1 ISZERO PUSH2 0x397 JUMPI PUSH0 DUP1 REVERT JUMPDEST POP PUSH2 0x3A0 PUSH2 0xF1C JUMP JUMPDEST PUSH1 0x40 MLOAD PUSH2 0x3AD SWAP2 SWAP1 PUSH2 0x1FEF JUMP JUMPDEST PUSH1 0x40 MLOAD DUP1 SWAP2 SUB SWAP1 RETURN JUMPDEST CALLVALUE DUP1 ISZERO PUSH2 0x3C1 JUMPI PUSH0 DUP1 REVERT JUMPDEST POP PUSH2 0x3CA PUSH2 0xF22 JUMP JUMPDEST PUSH1 0x40 MLOAD PUSH2 0x3D7 SWAP2 SWAP1 PUSH2 0x23B9 JUMP JUMPDEST PUSH1 0x40 MLOAD DUP1 SWAP2 SUB SWAP1 RETURN JUMPDEST CALLVALUE DUP1 ISZERO PUSH2 0x3EB JUMPI PUSH0 DUP1 REVERT JUMPDEST POP PUSH2 0x406 PUSH1 0x4 DUP1 CALLDATASIZE SUB DUP2 ADD SWAP1 PUSH2 0x401 SWAP2 SWAP1 PUSH2 0x1F79 JUMP JUMPDEST PUSH2 0xF45 JUMP JUMPDEST STOP JUMPDEST CALLVALUE DUP1 ISZERO PUSH2 0x413 JUMPI PUSH0 DUP1 REVERT JUMPDEST POP PUSH2 0x42E PUSH1 0x4 DUP1 CALLDATASIZE SUB DUP2 ADD SWAP1 PUSH2 0x429 SWAP2 SWAP1 PUSH2 0x1F79 JUMP JUMPDEST PUSH2 0x109F JUMP JUMPDEST PUSH1 0x40 MLOAD PUSH2 0x43B SWAP2 SWAP1 PUSH2 0x1FBE JUMP JUMPDEST PUSH1 0x40 MLOAD DUP1 SWAP2 SUB SWAP1 RETURN JUMPDEST PUSH2 0x45E PUSH1 0x4 DUP1 CALLDATASIZE SUB DUP2 ADD SWAP1 PUSH2 0x459 SWAP2 SWAP1 PUSH2 0x2354 JUMP JUMPDEST PUSH2 0x10BC JUMP JUMPDEST STOP JUMPDEST CALLVALUE DUP1 ISZERO PUSH2 0x46B JUMPI PUSH0 DUP1 REVERT JUMPDEST POP PUSH2 0x474 PUSH2 0x13B0 JUMP JUMPDEST PUSH1 0x40 MLOAD PUSH2 0x481 SWAP2 SWAP1 PUSH2 0x23B9 JUMP JUMPDEST PUSH1 0x40 MLOAD DUP1 SWAP2 SUB SWAP1 RETURN JUMPDEST CALLVALUE DUP1 ISZERO PUSH2 0x495 JUMPI PUSH0 DUP1 REVERT JUMPDEST POP PUSH2 0x4B0 PUSH1 0x4 DUP1 CALLDATASIZE SUB DUP2 ADD SWAP1 PUSH2 0x4AB SWAP2 SWAP1 PUSH2 0x1F79 JUMP JUMPDEST PUSH2 0x13D5 JUMP JUMPDEST PUSH1 0x40 MLOAD PUSH2 0x4BD SWAP2 SWAP1 PUSH2 0x1FEF JUMP JUMPDEST PUSH1 0x40 MLOAD DUP1 SWAP2 SUB SWAP1 RETURN JUMPDEST CALLVALUE DUP1 ISZERO PUSH2 0x4D1 JUMPI PUSH0 DUP1 REVERT JUMPDEST POP PUSH2 0x4DA PUSH2 0x13EA JUMP JUMPDEST STOP JUMPDEST CALLVALUE DUP1 ISZERO PUSH2 0x4E7 JUMPI PUSH0 DUP1 REVERT JUMPDEST POP PUSH2 0x502 PUSH1 0x4 DUP1 CALLDATASIZE SUB DUP2 ADD SWAP1 PUSH2 0x4FD SWAP2 SWAP1 PUSH2 0x1F79 JUMP JUMPDEST PUSH2 0x1643 JUMP JUMPDEST STOP JUMPDEST CALLVALUE DUP1 ISZERO PUSH2 0x50F JUMPI PUSH0 DUP1 REVERT JUMPDEST POP PUSH2 0x52A PUSH1 0x4 DUP1 CALLDATASIZE SUB DUP2 ADD SWAP1 PUSH2 0x525 SWAP2 SWAP1 PUSH2 0x2354 JUMP JUMPDEST PUSH2 0x1932 JUMP JUMPDEST PUSH1 0x40 MLOAD PUSH2 0x53C SWAP7 SWAP6 SWAP5 SWAP4 SWAP3 SWAP2 SWAP1 PUSH2 0x2484 JUMP JUMPDEST PUSH1 0x40 MLOAD DUP1 SWAP2 SUB SWAP1 RETURN JUMPDEST CALLVALUE DUP1 ISZERO PUSH2 0x550 JUMPI PUSH0 DUP1 REVERT JUMPDEST POP PUSH2 0x559 PUSH2 0x1AA1 JUMP JUMPDEST STOP JUMPDEST PUSH0 PUSH1 0x6 PUSH0 DUP4 PUSH20 0xFFFFFFFFFFFFFFFFFFFFFFFFFFFFFFFFFFFFFFFF AND PUSH20 0xFFFFFFFFFFFFFFFFFFFFFFFFFFFFFFFFFFFFFFFF AND DUP2 MSTORE PUSH1 0x20 ADD SWAP1 DUP2 MSTORE PUSH1 0x20 ADD PUSH0 KECCAK256 PUSH0 SWAP1 SLOAD SWAP1 PUSH2 0x100 EXP SWAP1 DIV PUSH1 0xFF AND SWAP1 POP SWAP2 SWAP1 POP JUMP JUMPDEST PUSH1 0xA SLOAD DUP2 JUMP JUMPDEST PUSH0 DUP1 SLOAD SWAP1 PUSH2 0x100 EXP SWAP1 DIV PUSH20 0xFFFFFFFFFFFFFFFFFFFFFFFFFFFFFFFFFFFFFFFF AND PUSH20 0xFFFFFFFFFFFFFFFFFFFFFFFFFFFFFFFFFFFFFFFF AND CALLER PUSH20 0xFFFFFFFFFFFFFFFFFFFFFFFFFFFFFFFFFFFFFFFF AND EQ PUSH2 0x640 JUMPI PUSH1 0x40 MLOAD PUSH32 0x8C379A000000000000000000000000000000000000000000000000000000000 DUP2 MSTORE PUSH1 0x4 ADD PUSH2 0x637 SWAP1 PUSH2 0x253B JUMP JUMPDEST PUSH1 0x40 MLOAD DUP1 SWAP2 SUB SWAP1 REVERT JUMPDEST PUSH1 0xC PUSH0 SWAP1 SLOAD SWAP1 PUSH2 0x100 EXP SWAP1 DIV PUSH1 0xFF AND ISZERO PUSH2 0x68F JUMPI PUSH1 0x40 MLOAD PUSH32 0x8C379A000000000000000000000000000000000000000000000000000000000 DUP2 MSTORE PUSH1 0x4 ADD PUSH2 0x686 SWAP1 PUSH2 0x25A3 JUMP JUMPDEST PUSH1 0x40 MLOAD DUP1 SWAP2 SUB SWAP1 REVERT JUMPDEST PUSH0 PUSH1 0x5 DUP1 SLOAD SWAP1 POP GT PUSH2 0x6D6 JUMPI PUSH1 0x40 MLOAD PUSH32 0x8C379A000000000000000000000000000000000000000000000000000000000 DUP2 MSTORE PUSH1 0x4 ADD PUSH2 0x6CD SWAP1 PUSH2 0x260B JUMP JUMPDEST PUSH1 0x40 MLOAD DUP1 SWAP2 SUB SWAP1 REVERT JUMPDEST TIMESTAMP PUSH1 0x9 DUP2 SWAP1 SSTORE POP PUSH1 0x78 TIMESTAMP PUSH2 0x6EA SWAP2 SWAP1 PUSH2 0x2656 JUMP JUMPDEST PUSH1 0xB DUP2 SWAP1 SSTORE POP PUSH2 0x258 TIMESTAMP PUSH2 0x6FE SWAP2 SWAP1 PUSH2 0x2656 JUMP JUMPDEST PUSH1 0xA DUP2 SWAP1 SSTORE POP PUSH1 0x1 PUSH1 0xC PUSH0 PUSH2 0x100 EXP DUP2 SLOAD DUP2 PUSH1 0xFF MUL NOT AND SWAP1 DUP4 ISZERO ISZERO MUL OR SWAP1 SSTORE POP PUSH2 0x726 PUSH2 0x1CA6 JUMP JUMPDEST JUMP JUMPDEST PUSH1 0x9 SLOAD DUP2 JUMP JUMPDEST PUSH0 DUP1 SLOAD SWAP1 PUSH2 0x100 EXP SWAP1 DIV PUSH20 0xFFFFFFFFFFFFFFFFFFFFFFFFFFFFFFFFFFFFFFFF AND PUSH20 0xFFFFFFFFFFFFFFFFFFFFFFFFFFFFFFFFFFFFFFFF AND CALLER PUSH20 0xFFFFFFFFFFFFFFFFFFFFFFFFFFFFFFFFFFFFFFFF AND EQ PUSH2 0x7BB JUMPI PUSH1 0x40 MLOAD PUSH32 0x8C379A000000000000000000000000000000000000000000000000000000000 DUP2 MSTORE PUSH1 0x4 ADD PUSH2 0x7B2 SWAP1 PUSH2 0x253B JUMP JUMPDEST PUSH1 0x40 MLOAD DUP1 SWAP2 SUB SWAP1 REVERT JUMPDEST PUSH1 0x6 PUSH0 DUP3 PUSH20 0xFFFFFFFFFFFFFFFFFFFFFFFFFFFFFFFFFFFFFFFF AND PUSH20 0xFFFFFFFFFFFFFFFFFFFFFFFFFFFFFFFFFFFFFFFF AND DUP2 MSTORE PUSH1 0x20 ADD SWAP1 DUP2 MSTORE PUSH1 0x20 ADD PUSH0 KECCAK256 PUSH0 SWAP1 SLOAD SWAP1 PUSH2 0x100 EXP SWAP1 DIV PUSH1 0xFF AND ISZERO PUSH2 0x845 JUMPI PUSH1 0x40 MLOAD PUSH32 0x8C379A000000000000000000000000000000000000000000000000000000000 DUP2 MSTORE PUSH1 0x4 ADD PUSH2 0x83C SWAP1 PUSH2 0x26D3 JUMP JUMPDEST PUSH1 0x40 MLOAD DUP1 SWAP2 SUB SWAP1 REVERT JUMPDEST PUSH1 0x5 DUP2 SWAP1 DUP1 PUSH1 0x1 DUP2 SLOAD ADD DUP1 DUP3 SSTORE DUP1 SWAP2 POP POP PUSH1 0x1 SWAP1 SUB SWAP1 PUSH0 MSTORE PUSH1 0x20 PUSH0 KECCAK256 ADD PUSH0 SWAP1 SWAP2 SWAP1 SWAP2 SWAP1 SWAP2 PUSH2 0x100 EXP DUP2 SLOAD DUP2 PUSH20 0xFFFFFFFFFFFFFFFFFFFFFFFFFFFFFFFFFFFFFFFF MUL NOT AND SWAP1 DUP4 PUSH20 0xFFFFFFFFFFFFFFFFFFFFFFFFFFFFFFFFFFFFFFFF AND MUL OR SWAP1 SSTORE POP PUSH1 0x1 PUSH1 0x6 PUSH0 DUP4 PUSH20 0xFFFFFFFFFFFFFFFFFFFFFFFFFFFFFFFFFFFFFFFF AND PUSH20 0xFFFFFFFFFFFFFFFFFFFFFFFFFFFFFFFFFFFFFFFF AND DUP2 MSTORE PUSH1 0x20 ADD SWAP1 DUP2 MSTORE PUSH1 0x20 ADD PUSH0 KECCAK256 PUSH0 PUSH2 0x100 EXP DUP2 SLOAD DUP2 PUSH1 0xFF MUL NOT AND SWAP1 DUP4 ISZERO ISZERO MUL OR SWAP1 SSTORE POP PUSH2 0x902 PUSH2 0x1CA6 JUMP JUMPDEST POP JUMP JUMPDEST PUSH1 0x1 SLOAD DUP2 JUMP JUMPDEST PUSH0 DUP1 PUSH0 SWAP1 SLOAD SWAP1 PUSH2 0x100 EXP SWAP1 DIV PUSH20 0xFFFFFFFFFFFFFFFFFFFFFFFFFFFFFFFFFFFFFFFF AND PUSH20 0xFFFFFFFFFFFFFFFFFFFFFFFFFFFFFFFFFFFFFFFF AND CALLER PUSH20 0xFFFFFFFFFFFFFFFFFFFFFFFFFFFFFFFFFFFFFFFF AND EQ PUSH2 0x99A JUMPI PUSH1 0x40 MLOAD PUSH32 0x8C379A000000000000000000000000000000000000000000000000000000000 DUP2 MSTORE PUSH1 0x4 ADD PUSH2 0x991 SWAP1 PUSH2 0x253B JUMP JUMPDEST PUSH1 0x40 MLOAD DUP1 SWAP2 SUB SWAP1 REVERT JUMPDEST DUP2 PUSH1 0x1 SLOAD DUP2 LT ISZERO DUP1 ISZERO PUSH2 0x9AF JUMPI POP PUSH1 0x2 SLOAD DUP2 GT ISZERO JUMPDEST PUSH2 0x9EE JUMPI PUSH1 0x40 MLOAD PUSH32 0x8C379A000000000000000000000000000000000000000000000000000000000 DUP2 MSTORE PUSH1 0x4 ADD PUSH2 0x9E5 SWAP1 PUSH2 0x273B JUMP JUMPDEST PUSH1 0x40 MLOAD DUP1 SWAP2 SUB SWAP1 REVERT JUMPDEST PUSH0 DUP8 DUP8 DUP8 DUP8 DUP8 TIMESTAMP PUSH2 0x9FF SWAP2 SWAP1 PUSH2 0x2656 JUMP JUMPDEST PUSH1 0x40 MLOAD PUSH1 0x20 ADD PUSH2 0xA13 SWAP6 SWAP5 SWAP4 SWAP3 SWAP2 SWAP1 PUSH2 0x2759 JUMP JUMPDEST PUSH1 0x40 MLOAD PUSH1 0x20 DUP2 DUP4 SUB SUB DUP2 MSTORE SWAP1 PUSH1 0x40 MSTORE DUP1 MLOAD SWAP1 PUSH1 0x20 ADD KECCAK256 SWAP1 POP PUSH1 0x40 MLOAD DUP1 PUSH1 0xC0 ADD PUSH1 0x40 MSTORE DUP1 DUP10 PUSH20 0xFFFFFFFFFFFFFFFFFFFFFFFFFFFFFFFFFFFFFFFF AND DUP2 MSTORE PUSH1 0x20 ADD DUP9 DUP2 MSTORE PUSH1 0x20 ADD DUP8 DUP2 MSTORE PUSH1 0x20 ADD DUP7 DUP2 MSTORE PUSH1 0x20 ADD DUP6 TIMESTAMP PUSH2 0xA70 SWAP2 SWAP1 PUSH2 0x2656 JUMP JUMPDEST DUP2 MSTORE PUSH1 0x20 ADD PUSH0 ISZERO ISZERO DUP2 MSTORE POP PUSH1 0x3 PUSH0 DUP4 DUP2 MSTORE PUSH1 0x20 ADD SWAP1 DUP2 MSTORE PUSH1 0x20 ADD PUSH0 KECCAK256 PUSH0 DUP3 ADD MLOAD DUP2 PUSH0 ADD PUSH0 PUSH2 0x100 EXP DUP2 SLOAD DUP2 PUSH20 0xFFFFFFFFFFFFFFFFFFFFFFFFFFFFFFFFFFFFFFFF MUL NOT AND SWAP1 DUP4 PUSH20 0xFFFFFFFFFFFFFFFFFFFFFFFFFFFFFFFFFFFFFFFF AND MUL OR SWAP1 SSTORE POP PUSH1 0x20 DUP3 ADD MLOAD DUP2 PUSH1 0x1 ADD SSTORE PUSH1 0x40 DUP3 ADD MLOAD DUP2 PUSH1 0x2 ADD SWAP1 DUP2 PUSH2 0xAEF SWAP2 SWAP1 PUSH2 0x29B2 JUMP JUMPDEST POP PUSH1 0x60 DUP3 ADD MLOAD DUP2 PUSH1 0x3 ADD SWAP1 DUP2 PUSH2 0xB05 SWAP2 SWAP1 PUSH2 0x2AD9 JUMP JUMPDEST POP PUSH1 0x80 DUP3 ADD MLOAD DUP2 PUSH1 0x4 ADD SSTORE PUSH1 0xA0 DUP3 ADD MLOAD DUP2 PUSH1 0x5 ADD PUSH0 PUSH2 0x100 EXP DUP2 SLOAD DUP2 PUSH1 0xFF MUL NOT AND SWAP1 DUP4 ISZERO ISZERO MUL OR SWAP1 SSTORE POP SWAP1 POP POP DUP8 PUSH20 0xFFFFFFFFFFFFFFFFFFFFFFFFFFFFFFFFFFFFFFFF AND PUSH32 0x8B225EAA2AF60F4AD41006FCD0DA0AA9030EF99E55E43A46E50B687AA5C6573 DUP3 DUP10 DUP10 DUP10 DUP10 TIMESTAMP PUSH2 0xB7A SWAP2 SWAP1 PUSH2 0x2656 JUMP JUMPDEST PUSH1 0x40 MLOAD PUSH2 0xB8B SWAP6 SWAP5 SWAP4 SWAP3 SWAP2 SWAP1 PUSH2 0x2BA8 JUMP JUMPDEST PUSH1 0x40 MLOAD DUP1 SWAP2 SUB SWAP1 LOG2 DUP1 SWAP3 POP POP POP SWAP6 SWAP5 POP POP POP POP POP JUMP JUMPDEST PUSH0 DUP1 SLOAD SWAP1 PUSH2 0x100 EXP SWAP1 DIV PUSH20 0xFFFFFFFFFFFFFFFFFFFFFFFFFFFFFFFFFFFFFFFF AND PUSH20 0xFFFFFFFFFFFFFFFFFFFFFFFFFFFFFFFFFFFFFFFF AND CALLER PUSH20 0xFFFFFFFFFFFFFFFFFFFFFFFFFFFFFFFFFFFFFFFF AND EQ PUSH2 0xC2E JUMPI PUSH1 0x40 MLOAD PUSH32 0x8C379A000000000000000000000000000000000000000000000000000000000 DUP2 MSTORE PUSH1 0x4 ADD PUSH2 0xC25 SWAP1 PUSH2 0x253B JUMP JUMPDEST PUSH1 0x40 MLOAD DUP1 SWAP2 SUB SWAP1 REVERT JUMPDEST DUP1 DUP3 GT ISZERO PUSH2 0xC71 JUMPI PUSH1 0x40 MLOAD PUSH32 0x8C379A000000000000000000000000000000000000000000000000000000000 DUP2 MSTORE PUSH1 0x4 ADD PUSH2 0xC68 SWAP1 PUSH2 0x2C51 JUMP JUMPDEST PUSH1 0x40 MLOAD DUP1 SWAP2 SUB SWAP1 REVERT JUMPDEST DUP2 PUSH1 0x1 DUP2 SWAP1 SSTORE POP DUP1 PUSH1 0x2 DUP2 SWAP1 SSTORE POP POP POP JUMP JUMPDEST PUSH1 0xC PUSH0 SWAP1 SLOAD SWAP1 PUSH2 0x100 EXP SWAP1 DIV PUSH1 0xFF AND DUP2 JUMP JUMPDEST PUSH1 0x8 SLOAD DUP2 JUMP JUMPDEST PUSH0 DUP1 SLOAD SWAP1 PUSH2 0x100 EXP SWAP1 DIV PUSH20 0xFFFFFFFFFFFFFFFFFFFFFFFFFFFFFFFFFFFFFFFF AND PUSH20 0xFFFFFFFFFFFFFFFFFFFFFFFFFFFFFFFFFFFFFFFF AND CALLER PUSH20 0xFFFFFFFFFFFFFFFFFFFFFFFFFFFFFFFFFFFFFFFF AND EQ PUSH2 0xD28 JUMPI PUSH1 0x40 MLOAD PUSH32 0x8C379A000000000000000000000000000000000000000000000000000000000 DUP2 MSTORE PUSH1 0x4 ADD PUSH2 0xD1F SWAP1 PUSH2 0x253B JUMP JUMPDEST PUSH1 0x40 MLOAD DUP1 SWAP2 SUB SWAP1 REVERT JUMPDEST PUSH0 PUSH20 0xFFFFFFFFFFFFFFFFFFFFFFFFFFFFFFFFFFFFFFFF AND PUSH1 0x3 PUSH0 DUP4 DUP2 MSTORE PUSH1 0x20 ADD SWAP1 DUP2 MSTORE PUSH1 0x20 ADD PUSH0 KECCAK256 PUSH0 ADD PUSH0 SWAP1 SLOAD SWAP1 PUSH2 0x100 EXP SWAP1 DIV PUSH20 0xFFFFFFFFFFFFFFFFFFFFFFFFFFFFFFFFFFFFFFFF AND PUSH20 0xFFFFFFFFFFFFFFFFFFFFFFFFFFFFFFFFFFFFFFFF AND SUB PUSH2 0xDC8 JUMPI PUSH1 0x40 MLOAD PUSH32 0x8C379A000000000000000000000000000000000000000000000000000000000 DUP2 MSTORE PUSH1 0x4 ADD PUSH2 0xDBF SWAP1 PUSH2 0x2CB9 JUMP JUMPDEST PUSH1 0x40 MLOAD DUP1 SWAP2 SUB SWAP1 REVERT JUMPDEST PUSH1 0x3 PUSH0 DUP3 DUP2 MSTORE PUSH1 0x20 ADD SWAP1 DUP2 MSTORE PUSH1 0x20 ADD PUSH0 KECCAK256 PUSH1 0x5 ADD PUSH0 SWAP1 SLOAD SWAP1 PUSH2 0x100 EXP SWAP1 DIV PUSH1 0xFF AND ISZERO PUSH2 0xE29 JUMPI PUSH1 0x40 MLOAD PUSH32 0x8C379A000000000000000000000000000000000000000000000000000000000 DUP2 MSTORE PUSH1 0x4 ADD PUSH2 0xE20 SWAP1 PUSH2 0x2D21 JUMP JUMPDEST PUSH1 0x40 MLOAD DUP1 SWAP2 SUB SWAP1 REVERT JUMPDEST PUSH1 0x3 PUSH0 DUP3 DUP2 MSTORE PUSH1 0x20 ADD SWAP1 DUP2 MSTORE PUSH1 0x20 ADD PUSH0 KECCAK256 PUSH0 DUP1 DUP3 ADD PUSH0 PUSH2 0x100 EXP DUP2 SLOAD SWAP1 PUSH20 0xFFFFFFFFFFFFFFFFFFFFFFFFFFFFFFFFFFFFFFFF MUL NOT AND SWAP1 SSTORE PUSH1 0x1 DUP3 ADD PUSH0 SWAP1 SSTORE PUSH1 0x2 DUP3 ADD PUSH0 PUSH2 0xE76 SWAP2 SWAP1 PUSH2 0x1E79 JUMP JUMPDEST PUSH1 0x3 DUP3 ADD PUSH0 PUSH2 0xE85 SWAP2 SWAP1 PUSH2 0x1EB6 JUMP JUMPDEST PUSH1 0x4 DUP3 ADD PUSH0 SWAP1 SSTORE PUSH1 0x5 DUP3 ADD PUSH0 PUSH2 0x100 EXP DUP2 SLOAD SWAP1 PUSH1 0xFF MUL NOT AND SWAP1 SSTORE POP POP PUSH32 0x891E6C675E964CF1E5982F60FDA276AD06301A9221B2F1D7BF2B2A42FBD69A1 DUP2 PUSH1 0x40 MLOAD PUSH2 0xED0 SWAP2 SWAP1 PUSH2 0x22D3 JUMP JUMPDEST PUSH1 0x40 MLOAD DUP1 SWAP2 SUB SWAP1 LOG1 POP JUMP JUMPDEST PUSH1 0x5 DUP2 DUP2 SLOAD DUP2 LT PUSH2 0xEEA JUMPI PUSH0 DUP1 REVERT JUMPDEST SWAP1 PUSH0 MSTORE PUSH1 0x20 PUSH0 KECCAK256 ADD PUSH0 SWAP2 POP SLOAD SWAP1 PUSH2 0x100 EXP SWAP1 DIV PUSH20 0xFFFFFFFFFFFFFFFFFFFFFFFFFFFFFFFFFFFFFFFF AND DUP2 JUMP JUMPDEST PUSH1 0xB SLOAD DUP2 JUMP JUMPDEST PUSH1 0x2 SLOAD DUP2 JUMP JUMPDEST PUSH0 DUP1 SLOAD SWAP1 PUSH2 0x100 EXP SWAP1 DIV PUSH20 0xFFFFFFFFFFFFFFFFFFFFFFFFFFFFFFFFFFFFFFFF AND DUP2 JUMP JUMPDEST PUSH1 0xB SLOAD TIMESTAMP GT ISZERO PUSH2 0xF8A JUMPI PUSH1 0x40 MLOAD PUSH32 0x8C379A000000000000000000000000000000000000000000000000000000000 DUP2 MSTORE PUSH1 0x4 ADD PUSH2 0xF81 SWAP1 PUSH2 0x2D89 JUMP JUMPDEST PUSH1 0x40 MLOAD DUP1 SWAP2 SUB SWAP1 REVERT JUMPDEST PUSH0 PUSH20 0xFFFFFFFFFFFFFFFFFFFFFFFFFFFFFFFFFFFFFFFF AND PUSH1 0x7 PUSH0 SWAP1 SLOAD SWAP1 PUSH2 0x100 EXP SWAP1 DIV PUSH20 0xFFFFFFFFFFFFFFFFFFFFFFFFFFFFFFFFFFFFFFFF AND PUSH20 0xFFFFFFFFFFFFFFFFFFFFFFFFFFFFFFFFFFFFFFFF AND EQ PUSH2 0x1019 JUMPI PUSH1 0x40 MLOAD PUSH32 0x8C379A000000000000000000000000000000000000000000000000000000000 DUP2 MSTORE PUSH1 0x4 ADD PUSH2 0x1010 SWAP1 PUSH2 0x2DF1 JUMP JUMPDEST PUSH1 0x40 MLOAD DUP1 SWAP2 SUB SWAP1 REVERT JUMPDEST DUP1 PUSH1 0x7 PUSH0 PUSH2 0x100 EXP DUP2 SLOAD DUP2 PUSH20 0xFFFFFFFFFFFFFFFFFFFFFFFFFFFFFFFFFFFFFFFF MUL NOT AND SWAP1 DUP4 PUSH20 0xFFFFFFFFFFFFFFFFFFFFFFFFFFFFFFFFFFFFFFFF AND MUL OR SWAP1 SSTORE POP DUP1 PUSH20 0xFFFFFFFFFFFFFFFFFFFFFFFFFFFFFFFFFFFFFFFF AND PUSH32 0xA50821A7869F90DCEF86915C08FF04D916DE378B5EADD9A9009E619F3B9B9390 PUSH1 0x40 MLOAD PUSH1 0x40 MLOAD DUP1 SWAP2 SUB SWAP1 LOG2 POP JUMP JUMPDEST PUSH1 0x6 PUSH1 0x20 MSTORE DUP1 PUSH0 MSTORE PUSH1 0x40 PUSH0 KECCAK256 PUSH0 SWAP2 POP SLOAD SWAP1 PUSH2 0x100 EXP SWAP1 DIV PUSH1 0xFF AND DUP2 JUMP JUMPDEST PUSH0 DUP1 SLOAD SWAP1 PUSH2 0x100 EXP SWAP1 DIV PUSH20 0xFFFFFFFFFFFFFFFFFFFFFFFFFFFFFFFFFFFFFFFF AND PUSH20 0xFFFFFFFFFFFFFFFFFFFFFFFFFFFFFFFFFFFFFFFF AND CALLER PUSH20 0xFFFFFFFFFFFFFFFFFFFFFFFFFFFFFFFFFFFFFFFF AND EQ PUSH2 0x1149 JUMPI PUSH1 0x40 MLOAD PUSH32 0x8C379A000000000000000000000000000000000000000000000000000000000 DUP2 MSTORE PUSH1 0x4 ADD PUSH2 0x1140 SWAP1 PUSH2 0x253B JUMP JUMPDEST PUSH1 0x40 MLOAD DUP1 SWAP2 SUB SWAP1 REVERT JUMPDEST PUSH0 PUSH1 0x3 PUSH0 DUP4 DUP2 MSTORE PUSH1 0x20 ADD SWAP1 DUP2 MSTORE PUSH1 0x20 ADD PUSH0 KECCAK256 SWAP1 POP PUSH0 PUSH20 0xFFFFFFFFFFFFFFFFFFFFFFFFFFFFFFFFFFFFFFFF AND DUP2 PUSH0 ADD PUSH0 SWAP1 SLOAD SWAP1 PUSH2 0x100 EXP SWAP1 DIV PUSH20 0xFFFFFFFFFFFFFFFFFFFFFFFFFFFFFFFFFFFFFFFF AND PUSH20 0xFFFFFFFFFFFFFFFFFFFFFFFFFFFFFFFFFFFFFFFF AND SUB PUSH2 0x11ED JUMPI PUSH1 0x40 MLOAD PUSH32 0x8C379A000000000000000000000000000000000000000000000000000000000 DUP2 MSTORE PUSH1 0x4 ADD PUSH2 0x11E4 SWAP1 PUSH2 0x2CB9 JUMP JUMPDEST PUSH1 0x40 MLOAD DUP1 SWAP2 SUB SWAP1 REVERT JUMPDEST DUP1 PUSH1 0x5 ADD PUSH0 SWAP1 SLOAD SWAP1 PUSH2 0x100 EXP SWAP1 DIV PUSH1 0xFF AND ISZERO PUSH2 0x123E JUMPI PUSH1 0x40 MLOAD PUSH32 0x8C379A000000000000000000000000000000000000000000000000000000000 DUP2 MSTORE PUSH1 0x4 ADD PUSH2 0x1235 SWAP1 PUSH2 0x2D21 JUMP JUMPDEST PUSH1 0x40 MLOAD DUP1 SWAP2 SUB SWAP1 REVERT JUMPDEST DUP1 PUSH1 0x4 ADD SLOAD TIMESTAMP LT ISZERO PUSH2 0x1285 JUMPI PUSH1 0x40 MLOAD PUSH32 0x8C379A000000000000000000000000000000000000000000000000000000000 DUP2 MSTORE PUSH1 0x4 ADD PUSH2 0x127C SWAP1 PUSH2 0x2E59 JUMP JUMPDEST PUSH1 0x40 MLOAD DUP1 SWAP2 SUB SWAP1 REVERT JUMPDEST PUSH0 DUP2 PUSH0 ADD PUSH0 SWAP1 SLOAD SWAP1 PUSH2 0x100 EXP SWAP1 DIV PUSH20 0xFFFFFFFFFFFFFFFFFFFFFFFFFFFFFFFFFFFFFFFF AND PUSH20 0xFFFFFFFFFFFFFFFFFFFFFFFFFFFFFFFFFFFFFFFF AND DUP3 PUSH1 0x1 ADD SLOAD DUP4 PUSH1 0x3 ADD PUSH1 0x40 MLOAD PUSH2 0x12D5 SWAP2 SWAP1 PUSH2 0x2F01 JUMP JUMPDEST PUSH0 PUSH1 0x40 MLOAD DUP1 DUP4 SUB DUP2 DUP6 DUP8 GAS CALL SWAP3 POP POP POP RETURNDATASIZE DUP1 PUSH0 DUP2 EQ PUSH2 0x130F JUMPI PUSH1 0x40 MLOAD SWAP2 POP PUSH1 0x1F NOT PUSH1 0x3F RETURNDATASIZE ADD AND DUP3 ADD PUSH1 0x40 MSTORE RETURNDATASIZE DUP3 MSTORE RETURNDATASIZE PUSH0 PUSH1 0x20 DUP5 ADD RETURNDATACOPY PUSH2 0x1314 JUMP JUMPDEST PUSH1 0x60 SWAP2 POP JUMPDEST POP POP SWAP1 POP DUP1 PUSH2 0x1358 JUMPI PUSH1 0x40 MLOAD PUSH32 0x8C379A000000000000000000000000000000000000000000000000000000000 DUP2 MSTORE PUSH1 0x4 ADD PUSH2 0x134F SWAP1 PUSH2 0x2F61 JUMP JUMPDEST PUSH1 0x40 MLOAD DUP1 SWAP2 SUB SWAP1 REVERT JUMPDEST PUSH1 0x1 DUP3 PUSH1 0x5 ADD PUSH0 PUSH2 0x100 EXP DUP2 SLOAD DUP2 PUSH1 0xFF MUL NOT AND SWAP1 DUP4 ISZERO ISZERO MUL OR SWAP1 SSTORE POP PUSH32 0x862D83C6C5AF275E697BFD4E27C8323C196B44BDD011DD9AAAB6DB0EC9943DCE DUP4 PUSH1 0x40 MLOAD PUSH2 0x13A3 SWAP2 SWAP1 PUSH2 0x22D3 JUMP JUMPDEST PUSH1 0x40 MLOAD DUP1 SWAP2 SUB SWAP1 LOG1 POP POP POP JUMP JUMPDEST PUSH1 0x7 PUSH0 SWAP1 SLOAD SWAP1 PUSH2 0x100 EXP SWAP1 DIV PUSH20 0xFFFFFFFFFFFFFFFFFFFFFFFFFFFFFFFFFFFFFFFF AND DUP2 JUMP JUMPDEST PUSH1 0x4 PUSH1 0x20 MSTORE DUP1 PUSH0 MSTORE PUSH1 0x40 PUSH0 KECCAK256 PUSH0 SWAP2 POP SWAP1 POP SLOAD DUP2 JUMP JUMPDEST PUSH1 0xB SLOAD TIMESTAMP LT ISZERO DUP1 ISZERO PUSH2 0x13FE JUMPI POP PUSH1 0xA SLOAD TIMESTAMP GT ISZERO JUMPDEST PUSH2 0x143D JUMPI PUSH1 0x40 MLOAD PUSH32 0x8C379A000000000000000000000000000000000000000000000000000000000 DUP2 MSTORE PUSH1 0x4 ADD PUSH2 0x1434 SWAP1 PUSH2 0x2FC9 JUMP JUMPDEST PUSH1 0x40 MLOAD DUP1 SWAP2 SUB SWAP1 REVERT JUMPDEST PUSH0 PUSH20 0xFFFFFFFFFFFFFFFFFFFFFFFFFFFFFFFFFFFFFFFF AND PUSH1 0x7 PUSH0 SWAP1 SLOAD SWAP1 PUSH2 0x100 EXP SWAP1 DIV PUSH20 0xFFFFFFFFFFFFFFFFFFFFFFFFFFFFFFFFFFFFFFFF AND PUSH20 0xFFFFFFFFFFFFFFFFFFFFFFFFFFFFFFFFFFFFFFFF AND SUB PUSH2 0x14CC JUMPI PUSH1 0x40 MLOAD PUSH32 0x8C379A000000000000000000000000000000000000000000000000000000000 DUP2 MSTORE PUSH1 0x4 ADD PUSH2 0x14C3 SWAP1 PUSH2 0x3031 JUMP JUMPDEST PUSH1 0x40 MLOAD DUP1 SWAP2 SUB SWAP1 REVERT JUMPDEST PUSH1 0x6 PUSH0 CALLER PUSH20 0xFFFFFFFFFFFFFFFFFFFFFFFFFFFFFFFFFFFFFFFF AND PUSH20 0xFFFFFFFFFFFFFFFFFFFFFFFFFFFFFFFFFFFFFFFF AND DUP2 MSTORE PUSH1 0x20 ADD SWAP1 DUP2 MSTORE PUSH1 0x20 ADD PUSH0 KECCAK256 PUSH0 SWAP1 SLOAD SWAP1 PUSH2 0x100 EXP SWAP1 DIV PUSH1 0xFF AND PUSH2 0x1555 JUMPI PUSH1 0x40 MLOAD PUSH32 0x8C379A000000000000000000000000000000000000000000000000000000000 DUP2 MSTORE PUSH1 0x4 ADD PUSH2 0x154C SWAP1 PUSH2 0x3099 JUMP JUMPDEST PUSH1 0x40 MLOAD DUP1 SWAP2 SUB SWAP1 REVERT JUMPDEST PUSH0 PUSH1 0x4 PUSH0 CALLER PUSH20 0xFFFFFFFFFFFFFFFFFFFFFFFFFFFFFFFFFFFFFFFF AND PUSH20 0xFFFFFFFFFFFFFFFFFFFFFFFFFFFFFFFFFFFFFFFF AND DUP2 MSTORE PUSH1 0x20 ADD SWAP1 DUP2 MSTORE PUSH1 0x20 ADD PUSH0 KECCAK256 SLOAD EQ PUSH2 0x15D4 JUMPI PUSH1 0x40 MLOAD PUSH32 0x8C379A000000000000000000000000000000000000000000000000000000000 DUP2 MSTORE PUSH1 0x4 ADD PUSH2 0x15CB SWAP1 PUSH2 0x3101 JUMP JUMPDEST PUSH1 0x40 MLOAD DUP1 SWAP2 SUB SWAP1 REVERT JUMPDEST PUSH1 0x1 PUSH1 0x4 PUSH0 CALLER PUSH20 0xFFFFFFFFFFFFFFFFFFFFFFFFFFFFFFFFFFFFFFFF AND PUSH20 0xFFFFFFFFFFFFFFFFFFFFFFFFFFFFFFFFFFFFFFFF AND DUP2 MSTORE PUSH1 0x20 ADD SWAP1 DUP2 MSTORE PUSH1 0x20 ADD PUSH0 KECCAK256 PUSH0 DUP3 DUP3 SLOAD PUSH2 0x1621 SWAP2 SWAP1 PUSH2 0x2656 JUMP JUMPDEST SWAP3 POP POP DUP2 SWAP1 SSTORE POP PUSH1 0x8 SLOAD PUSH2 0x1633 PUSH2 0x1CDD JUMP JUMPDEST LT PUSH2 0x1641 JUMPI PUSH2 0x1640 PUSH2 0x1AA1 JUMP JUMPDEST JUMPDEST JUMP JUMPDEST PUSH0 DUP1 SLOAD SWAP1 PUSH2 0x100 EXP SWAP1 DIV PUSH20 0xFFFFFFFFFFFFFFFFFFFFFFFFFFFFFFFFFFFFFFFF AND PUSH20 0xFFFFFFFFFFFFFFFFFFFFFFFFFFFFFFFFFFFFFFFF AND CALLER PUSH20 0xFFFFFFFFFFFFFFFFFFFFFFFFFFFFFFFFFFFFFFFF AND EQ PUSH2 0x16D0 JUMPI PUSH1 0x40 MLOAD PUSH32 0x8C379A000000000000000000000000000000000000000000000000000000000 DUP2 MSTORE PUSH1 0x4 ADD PUSH2 0x16C7 SWAP1 PUSH2 0x253B JUMP JUMPDEST PUSH1 0x40 MLOAD DUP1 SWAP2 SUB SWAP1 REVERT JUMPDEST PUSH1 0x6 PUSH0 DUP3 PUSH20 0xFFFFFFFFFFFFFFFFFFFFFFFFFFFFFFFFFFFFFFFF AND PUSH20 0xFFFFFFFFFFFFFFFFFFFFFFFFFFFFFFFFFFFFFFFF AND DUP2 MSTORE PUSH1 0x20 ADD SWAP1 DUP2 MSTORE PUSH1 0x20 ADD PUSH0 KECCAK256 PUSH0 SWAP1 SLOAD SWAP1 PUSH2 0x100 EXP SWAP1 DIV PUSH1 0xFF AND PUSH2 0x1759 JUMPI PUSH1 0x40 MLOAD PUSH32 0x8C379A000000000000000000000000000000000000000000000000000000000 DUP2 MSTORE PUSH1 0x4 ADD PUSH2 0x1750 SWAP1 PUSH2 0x3169 JUMP JUMPDEST PUSH1 0x40 MLOAD DUP1 SWAP2 SUB SWAP1 REVERT JUMPDEST PUSH0 JUMPDEST PUSH1 0x5 DUP1 SLOAD SWAP1 POP DUP2 LT ISZERO PUSH2 0x18D2 JUMPI DUP2 PUSH20 0xFFFFFFFFFFFFFFFFFFFFFFFFFFFFFFFFFFFFFFFF AND PUSH1 0x5 DUP3 DUP2 SLOAD DUP2 LT PUSH2 0x1793 JUMPI PUSH2 0x1792 PUSH2 0x3187 JUMP JUMPDEST JUMPDEST SWAP1 PUSH0 MSTORE PUSH1 0x20 PUSH0 KECCAK256 ADD PUSH0 SWAP1 SLOAD SWAP1 PUSH2 0x100 EXP SWAP1 DIV PUSH20 0xFFFFFFFFFFFFFFFFFFFFFFFFFFFFFFFFFFFFFFFF AND PUSH20 0xFFFFFFFFFFFFFFFFFFFFFFFFFFFFFFFFFFFFFFFF AND SUB PUSH2 0x18C5 JUMPI PUSH1 0x5 PUSH1 0x1 PUSH1 0x5 DUP1 SLOAD SWAP1 POP PUSH2 0x17EA SWAP2 SWAP1 PUSH2 0x31B4 JUMP JUMPDEST DUP2 SLOAD DUP2 LT PUSH2 0x17FB JUMPI PUSH2 0x17FA PUSH2 0x3187 JUMP JUMPDEST JUMPDEST SWAP1 PUSH0 MSTORE PUSH1 0x20 PUSH0 KECCAK256 ADD PUSH0 SWAP1 SLOAD SWAP1 PUSH2 0x100 EXP SWAP1 DIV PUSH20 0xFFFFFFFFFFFFFFFFFFFFFFFFFFFFFFFFFFFFFFFF AND PUSH1 0x5 DUP3 DUP2 SLOAD DUP2 LT PUSH2 0x1837 JUMPI PUSH2 0x1836 PUSH2 0x3187 JUMP JUMPDEST JUMPDEST SWAP1 PUSH0 MSTORE PUSH1 0x20 PUSH0 KECCAK256 ADD PUSH0 PUSH2 0x100 EXP DUP2 SLOAD DUP2 PUSH20 0xFFFFFFFFFFFFFFFFFFFFFFFFFFFFFFFFFFFFFFFF MUL NOT AND SWAP1 DUP4 PUSH20 0xFFFFFFFFFFFFFFFFFFFFFFFFFFFFFFFFFFFFFFFF AND MUL OR SWAP1 SSTORE POP PUSH1 0x5 DUP1 SLOAD DUP1 PUSH2 0x188E JUMPI PUSH2 0x188D PUSH2 0x31E7 JUMP JUMPDEST JUMPDEST PUSH1 0x1 SWAP1 SUB DUP2 DUP2 SWAP1 PUSH0 MSTORE PUSH1 0x20 PUSH0 KECCAK256 ADD PUSH0 PUSH2 0x100 EXP DUP2 SLOAD SWAP1 PUSH20 0xFFFFFFFFFFFFFFFFFFFFFFFFFFFFFFFFFFFFFFFF MUL NOT AND SWAP1 SSTORE SWAP1 SSTORE PUSH2 0x18D2 JUMP JUMPDEST DUP1 DUP1 PUSH1 0x1 ADD SWAP2 POP POP PUSH2 0x175B JUMP JUMPDEST POP PUSH0 PUSH1 0x6 PUSH0 DUP4 PUSH20 0xFFFFFFFFFFFFFFFFFFFFFFFFFFFFFFFFFFFFFFFF AND PUSH20 0xFFFFFFFFFFFFFFFFFFFFFFFFFFFFFFFFFFFFFFFF AND DUP2 MSTORE PUSH1 0x20 ADD SWAP1 DUP2 MSTORE PUSH1 0x20 ADD PUSH0 KECCAK256 PUSH0 PUSH2 0x100 EXP DUP2 SLOAD DUP2 PUSH1 0xFF MUL NOT AND SWAP1 DUP4 ISZERO ISZERO MUL OR SWAP1 SSTORE POP PUSH2 0x192F PUSH2 0x1CA6 JUMP JUMPDEST POP JUMP JUMPDEST PUSH1 0x3 PUSH1 0x20 MSTORE DUP1 PUSH0 MSTORE PUSH1 0x40 PUSH0 KECCAK256 PUSH0 SWAP2 POP SWAP1 POP DUP1 PUSH0 ADD PUSH0 SWAP1 SLOAD SWAP1 PUSH2 0x100 EXP SWAP1 DIV PUSH20 0xFFFFFFFFFFFFFFFFFFFFFFFFFFFFFFFFFFFFFFFF AND SWAP1 DUP1 PUSH1 0x1 ADD SLOAD SWAP1 DUP1 PUSH1 0x2 ADD DUP1 SLOAD PUSH2 0x197C SWAP1 PUSH2 0x27E5 JUMP JUMPDEST DUP1 PUSH1 0x1F ADD PUSH1 0x20 DUP1 SWAP2 DIV MUL PUSH1 0x20 ADD PUSH1 0x40 MLOAD SWAP1 DUP2 ADD PUSH1 0x40 MSTORE DUP1 SWAP3 SWAP2 SWAP1 DUP2 DUP2 MSTORE PUSH1 0x20 ADD DUP3 DUP1 SLOAD PUSH2 0x19A8 SWAP1 PUSH2 0x27E5 JUMP JUMPDEST DUP1 ISZERO PUSH2 0x19F3 JUMPI DUP1 PUSH1 0x1F LT PUSH2 0x19CA JUMPI PUSH2 0x100 DUP1 DUP4 SLOAD DIV MUL DUP4 MSTORE SWAP2 PUSH1 0x20 ADD SWAP2 PUSH2 0x19F3 JUMP JUMPDEST DUP3 ADD SWAP2 SWAP1 PUSH0 MSTORE PUSH1 0x20 PUSH0 KECCAK256 SWAP1 JUMPDEST DUP2 SLOAD DUP2 MSTORE SWAP1 PUSH1 0x1 ADD SWAP1 PUSH1 0x20 ADD DUP1 DUP4 GT PUSH2 0x19D6 JUMPI DUP3 SWAP1 SUB PUSH1 0x1F AND DUP3 ADD SWAP2 JUMPDEST POP POP POP POP POP SWAP1 DUP1 PUSH1 0x3 ADD DUP1 SLOAD PUSH2 0x1A08 SWAP1 PUSH2 0x27E5 JUMP JUMPDEST DUP1 PUSH1 0x1F ADD PUSH1 0x20 DUP1 SWAP2 DIV MUL PUSH1 0x20 ADD PUSH1 0x40 MLOAD SWAP1 DUP2 ADD PUSH1 0x40 MSTORE DUP1 SWAP3 SWAP2 SWAP1 DUP2 DUP2 MSTORE PUSH1 0x20 ADD DUP3 DUP1 SLOAD PUSH2 0x1A34 SWAP1 PUSH2 0x27E5 JUMP JUMPDEST DUP1 ISZERO PUSH2 0x1A7F JUMPI DUP1 PUSH1 0x1F LT PUSH2 0x1A56 JUMPI PUSH2 0x100 DUP1 DUP4 SLOAD DIV MUL DUP4 MSTORE SWAP2 PUSH1 0x20 ADD SWAP2 PUSH2 0x1A7F JUMP JUMPDEST DUP3 ADD SWAP2 SWAP1 PUSH0 MSTORE PUSH1 0x20 PUSH0 KECCAK256 SWAP1 JUMPDEST DUP2 SLOAD DUP2 MSTORE SWAP1 PUSH1 0x1 ADD SWAP1 PUSH1 0x20 ADD DUP1 DUP4 GT PUSH2 0x1A62 JUMPI DUP3 SWAP1 SUB PUSH1 0x1F AND DUP3 ADD SWAP2 JUMPDEST POP POP POP POP POP SWAP1 DUP1 PUSH1 0x4 ADD SLOAD SWAP1 DUP1 PUSH1 0x5 ADD PUSH0 SWAP1 SLOAD SWAP1 PUSH2 0x100 EXP SWAP1 DIV PUSH1 0xFF AND SWAP1 POP DUP7 JUMP JUMPDEST PUSH1 0xA SLOAD TIMESTAMP GT PUSH2 0x1AE5 JUMPI PUSH1 0x40 MLOAD PUSH32 0x8C379A000000000000000000000000000000000000000000000000000000000 DUP2 MSTORE PUSH1 0x4 ADD PUSH2 0x1ADC SWAP1 PUSH2 0x325E JUMP JUMPDEST PUSH1 0x40 MLOAD DUP1 SWAP2 SUB SWAP1 REVERT JUMPDEST PUSH0 PUSH20 0xFFFFFFFFFFFFFFFFFFFFFFFFFFFFFFFFFFFFFFFF AND PUSH1 0x7 PUSH0 SWAP1 SLOAD SWAP1 PUSH2 0x100 EXP SWAP1 DIV PUSH20 0xFFFFFFFFFFFFFFFFFFFFFFFFFFFFFFFFFFFFFFFF AND PUSH20 0xFFFFFFFFFFFFFFFFFFFFFFFFFFFFFFFFFFFFFFFF AND SUB PUSH2 0x1B74 JUMPI PUSH1 0x40 MLOAD PUSH32 0x8C379A000000000000000000000000000000000000000000000000000000000 DUP2 MSTORE PUSH1 0x4 ADD PUSH2 0x1B6B SWAP1 PUSH2 0x32C6 JUMP JUMPDEST PUSH1 0x40 MLOAD DUP1 SWAP2 SUB SWAP1 REVERT JUMPDEST PUSH1 0x7 PUSH0 SWAP1 SLOAD SWAP1 PUSH2 0x100 EXP SWAP1 DIV PUSH20 0xFFFFFFFFFFFFFFFFFFFFFFFFFFFFFFFFFFFFFFFF AND PUSH0 DUP1 PUSH2 0x100 EXP DUP2 SLOAD DUP2 PUSH20 0xFFFFFFFFFFFFFFFFFFFFFFFFFFFFFFFFFFFFFFFF MUL NOT AND SWAP1 DUP4 PUSH20 0xFFFFFFFFFFFFFFFFFFFFFFFFFFFFFFFFFFFFFFFF AND MUL OR SWAP1 SSTORE POP PUSH1 0x7 PUSH0 SWAP1 SLOAD SWAP1 PUSH2 0x100 EXP SWAP1 DIV PUSH20 0xFFFFFFFFFFFFFFFFFFFFFFFFFFFFFFFFFFFFFFFF AND PUSH20 0xFFFFFFFFFFFFFFFFFFFFFFFFFFFFFFFFFFFFFFFF AND PUSH32 0xA2EA9883A321A3E97B8266C2B078BFEEC6D50C711ED71F874A90D500AE2EAF36 PUSH1 0x40 MLOAD PUSH1 0x40 MLOAD DUP1 SWAP2 SUB SWAP1 LOG2 PUSH1 0x7 PUSH0 SWAP1 SLOAD SWAP1 PUSH2 0x100 EXP SWAP1 DIV PUSH20 0xFFFFFFFFFFFFFFFFFFFFFFFFFFFFFFFFFFFFFFFF AND PUSH20 0xFFFFFFFFFFFFFFFFFFFFFFFFFFFFFFFFFFFFFFFF AND PUSH32 0x632D764ABFAAA0B14481C6A74FFC7EE7E9A8490097CDC054DE8C42239A62E1C5 PUSH1 0x40 MLOAD PUSH1 0x40 MLOAD DUP1 SWAP2 SUB SWAP1 LOG2 PUSH2 0x1CA4 PUSH2 0x1D84 JUMP JUMPDEST JUMP JUMPDEST PUSH0 PUSH1 0x5 DUP1 SLOAD SWAP1 POP SWAP1 POP PUSH1 0x64 PUSH1 0x63 PUSH1 0x33 DUP4 PUSH2 0x1CC0 SWAP2 SWAP1 PUSH2 0x32E4 JUMP JUMPDEST PUSH2 0x1CCA SWAP2 SWAP1 PUSH2 0x2656 JUMP JUMPDEST PUSH2 0x1CD4 SWAP2 SWAP1 PUSH2 0x3352 JUMP JUMPDEST PUSH1 0x8 DUP2 SWAP1 SSTORE POP POP JUMP JUMPDEST PUSH0 DUP1 JUMPDEST PUSH1 0x5 DUP1 SLOAD SWAP1 POP DUP2 LT ISZERO PUSH2 0x1D80 JUMPI PUSH1 0x4 PUSH0 PUSH1 0x5 DUP4 DUP2 SLOAD DUP2 LT PUSH2 0x1D04 JUMPI PUSH2 0x1D03 PUSH2 0x3187 JUMP JUMPDEST JUMPDEST SWAP1 PUSH0 MSTORE PUSH1 0x20 PUSH0 KECCAK256 ADD PUSH0 SWAP1 SLOAD SWAP1 PUSH2 0x100 EXP SWAP1 DIV PUSH20 0xFFFFFFFFFFFFFFFFFFFFFFFFFFFFFFFFFFFFFFFF AND PUSH20 0xFFFFFFFFFFFFFFFFFFFFFFFFFFFFFFFFFFFFFFFF AND PUSH20 0xFFFFFFFFFFFFFFFFFFFFFFFFFFFFFFFFFFFFFFFF AND DUP2 MSTORE PUSH1 0x20 ADD SWAP1 DUP2 MSTORE PUSH1 0x20 ADD PUSH0 KECCAK256 SLOAD DUP3 PUSH2 0x1D71 SWAP2 SWAP1 PUSH2 0x2656 JUMP JUMPDEST SWAP2 POP DUP1 DUP1 PUSH1 0x1 ADD SWAP2 POP POP PUSH2 0x1CE0 JUMP JUMPDEST POP SWAP1 JUMP JUMPDEST PUSH0 PUSH1 0x7 PUSH0 PUSH2 0x100 EXP DUP2 SLOAD DUP2 PUSH20 0xFFFFFFFFFFFFFFFFFFFFFFFFFFFFFFFFFFFFFFFF MUL NOT AND SWAP1 DUP4 PUSH20 0xFFFFFFFFFFFFFFFFFFFFFFFFFFFFFFFFFFFFFFFF AND MUL OR SWAP1 SSTORE POP PUSH0 PUSH1 0xC PUSH0 PUSH2 0x100 EXP DUP2 SLOAD DUP2 PUSH1 0xFF MUL NOT AND SWAP1 DUP4 ISZERO ISZERO MUL OR SWAP1 SSTORE POP PUSH0 JUMPDEST PUSH1 0x5 DUP1 SLOAD SWAP1 POP DUP2 LT ISZERO PUSH2 0x1E76 JUMPI PUSH0 PUSH1 0x4 PUSH0 PUSH1 0x5 DUP5 DUP2 SLOAD DUP2 LT PUSH2 0x1E04 JUMPI PUSH2 0x1E03 PUSH2 0x3187 JUMP JUMPDEST JUMPDEST SWAP1 PUSH0 MSTORE PUSH1 0x20 PUSH0 KECCAK256 ADD PUSH0 SWAP1 SLOAD SWAP1 PUSH2 0x100 EXP SWAP1 DIV PUSH20 0xFFFFFFFFFFFFFFFFFFFFFFFFFFFFFFFFFFFFFFFF AND PUSH20 0xFFFFFFFFFFFFFFFFFFFFFFFFFFFFFFFFFFFFFFFF AND PUSH20 0xFFFFFFFFFFFFFFFFFFFFFFFFFFFFFFFFFFFFFFFF AND DUP2 MSTORE PUSH1 0x20 ADD SWAP1 DUP2 MSTORE PUSH1 0x20 ADD PUSH0 KECCAK256 DUP2 SWAP1 SSTORE POP DUP1 DUP1 PUSH1 0x1 ADD SWAP2 POP POP PUSH2 0x1DDF JUMP JUMPDEST POP JUMP JUMPDEST POP DUP1 SLOAD PUSH2 0x1E85 SWAP1 PUSH2 0x27E5 JUMP JUMPDEST PUSH0 DUP3 SSTORE DUP1 PUSH1 0x1F LT PUSH2 0x1E96 JUMPI POP PUSH2 0x1EB3 JUMP JUMPDEST PUSH1 0x1F ADD PUSH1 0x20 SWAP1 DIV SWAP1 PUSH0 MSTORE PUSH1 0x20 PUSH0 KECCAK256 SWAP1 DUP2 ADD SWAP1 PUSH2 0x1EB2 SWAP2 SWAP1 PUSH2 0x1EF3 JUMP JUMPDEST JUMPDEST POP JUMP JUMPDEST POP DUP1 SLOAD PUSH2 0x1EC2 SWAP1 PUSH2 0x27E5 JUMP JUMPDEST PUSH0 DUP3 SSTORE DUP1 PUSH1 0x1F LT PUSH2 0x1ED3 JUMPI POP PUSH2 0x1EF0 JUMP JUMPDEST PUSH1 0x1F ADD PUSH1 0x20 SWAP1 DIV SWAP1 PUSH0 MSTORE PUSH1 0x20 PUSH0 KECCAK256 SWAP1 DUP2 ADD SWAP1 PUSH2 0x1EEF SWAP2 SWAP1 PUSH2 0x1EF3 JUMP JUMPDEST JUMPDEST POP JUMP JUMPDEST JUMPDEST DUP1 DUP3 GT ISZERO PUSH2 0x1F0A JUMPI PUSH0 DUP2 PUSH0 SWAP1 SSTORE POP PUSH1 0x1 ADD PUSH2 0x1EF4 JUMP JUMPDEST POP SWAP1 JUMP JUMPDEST PUSH0 PUSH1 0x40 MLOAD SWAP1 POP SWAP1 JUMP JUMPDEST PUSH0 DUP1 REVERT JUMPDEST PUSH0 DUP1 REVERT JUMPDEST PUSH0 PUSH20 0xFFFFFFFFFFFFFFFFFFFFFFFFFFFFFFFFFFFFFFFF DUP3 AND SWAP1 POP SWAP2 SWAP1 POP JUMP JUMPDEST PUSH0 PUSH2 0x1F48 DUP3 PUSH2 0x1F1F JUMP JUMPDEST SWAP1 POP SWAP2 SWAP1 POP JUMP JUMPDEST PUSH2 0x1F58 DUP2 PUSH2 0x1F3E JUMP JUMPDEST DUP2 EQ PUSH2 0x1F62 JUMPI PUSH0 DUP1 REVERT JUMPDEST POP JUMP JUMPDEST PUSH0 DUP2 CALLDATALOAD SWAP1 POP PUSH2 0x1F73 DUP2 PUSH2 0x1F4F JUMP JUMPDEST SWAP3 SWAP2 POP POP JUMP JUMPDEST PUSH0 PUSH1 0x20 DUP3 DUP5 SUB SLT ISZERO PUSH2 0x1F8E JUMPI PUSH2 0x1F8D PUSH2 0x1F17 JUMP JUMPDEST JUMPDEST PUSH0 PUSH2 0x1F9B DUP5 DUP3 DUP6 ADD PUSH2 0x1F65 JUMP JUMPDEST SWAP2 POP POP SWAP3 SWAP2 POP POP JUMP JUMPDEST PUSH0 DUP2 ISZERO ISZERO SWAP1 POP SWAP2 SWAP1 POP JUMP JUMPDEST PUSH2 0x1FB8 DUP2 PUSH2 0x1FA4 JUMP JUMPDEST DUP3 MSTORE POP POP JUMP JUMPDEST PUSH0 PUSH1 0x20 DUP3 ADD SWAP1 POP PUSH2 0x1FD1 PUSH0 DUP4 ADD DUP5 PUSH2 0x1FAF JUMP JUMPDEST SWAP3 SWAP2 POP POP JUMP JUMPDEST PUSH0 DUP2 SWAP1 POP SWAP2 SWAP1 POP JUMP JUMPDEST PUSH2 0x1FE9 DUP2 PUSH2 0x1FD7 JUMP JUMPDEST DUP3 MSTORE POP POP JUMP JUMPDEST PUSH0 PUSH1 0x20 DUP3 ADD SWAP1 POP PUSH2 0x2002 PUSH0 DUP4 ADD DUP5 PUSH2 0x1FE0 JUMP JUMPDEST SWAP3 SWAP2 POP POP JUMP JUMPDEST PUSH2 0x2011 DUP2 PUSH2 0x1FD7 JUMP JUMPDEST DUP2 EQ PUSH2 0x201B JUMPI PUSH0 DUP1 REVERT JUMPDEST POP JUMP JUMPDEST PUSH0 DUP2 CALLDATALOAD SWAP1 POP PUSH2 0x202C DUP2 PUSH2 0x2008 JUMP JUMPDEST SWAP3 SWAP2 POP POP JUMP JUMPDEST PUSH0 DUP1 REVERT JUMPDEST PUSH0 DUP1 REVERT JUMPDEST PUSH0 PUSH1 0x1F NOT PUSH1 0x1F DUP4 ADD AND SWAP1 POP SWAP2 SWAP1 POP JUMP JUMPDEST PUSH32 0x4E487B7100000000000000000000000000000000000000000000000000000000 PUSH0 MSTORE PUSH1 0x41 PUSH1 0x4 MSTORE PUSH1 0x24 PUSH0 REVERT JUMPDEST PUSH2 0x2080 DUP3 PUSH2 0x203A JUMP JUMPDEST DUP2 ADD DUP2 DUP2 LT PUSH8 0xFFFFFFFFFFFFFFFF DUP3 GT OR ISZERO PUSH2 0x209F JUMPI PUSH2 0x209E PUSH2 0x204A JUMP JUMPDEST JUMPDEST DUP1 PUSH1 0x40 MSTORE POP POP POP JUMP JUMPDEST PUSH0 PUSH2 0x20B1 PUSH2 0x1F0E JUMP JUMPDEST SWAP1 POP PUSH2 0x20BD DUP3 DUP3 PUSH2 0x2077 JUMP JUMPDEST SWAP2 SWAP1 POP JUMP JUMPDEST PUSH0 PUSH8 0xFFFFFFFFFFFFFFFF DUP3 GT ISZERO PUSH2 0x20DC JUMPI PUSH2 0x20DB PUSH2 0x204A JUMP JUMPDEST JUMPDEST PUSH2 0x20E5 DUP3 PUSH2 0x203A JUMP JUMPDEST SWAP1 POP PUSH1 0x20 DUP2 ADD SWAP1 POP SWAP2 SWAP1 POP JUMP JUMPDEST DUP3 DUP2 DUP4 CALLDATACOPY PUSH0 DUP4 DUP4 ADD MSTORE POP POP POP JUMP JUMPDEST PUSH0 PUSH2 0x2112 PUSH2 0x210D DUP5 PUSH2 0x20C2 JUMP JUMPDEST PUSH2 0x20A8 JUMP JUMPDEST SWAP1 POP DUP3 DUP2 MSTORE PUSH1 0x20 DUP2 ADD DUP5 DUP5 DUP5 ADD GT ISZERO PUSH2 0x212E JUMPI PUSH2 0x212D PUSH2 0x2036 JUMP JUMPDEST JUMPDEST PUSH2 0x2139 DUP5 DUP3 DUP6 PUSH2 0x20F2 JUMP JUMPDEST POP SWAP4 SWAP3 POP POP POP JUMP JUMPDEST PUSH0 DUP3 PUSH1 0x1F DUP4 ADD SLT PUSH2 0x2155 JUMPI PUSH2 0x2154 PUSH2 0x2032 JUMP JUMPDEST JUMPDEST DUP2 CALLDATALOAD PUSH2 0x2165 DUP5 DUP3 PUSH1 0x20 DUP7 ADD PUSH2 0x2100 JUMP JUMPDEST SWAP2 POP POP SWAP3 SWAP2 POP POP JUMP JUMPDEST PUSH0 PUSH8 0xFFFFFFFFFFFFFFFF DUP3 GT ISZERO PUSH2 0x2188 JUMPI PUSH2 0x2187 PUSH2 0x204A JUMP JUMPDEST JUMPDEST PUSH2 0x2191 DUP3 PUSH2 0x203A JUMP JUMPDEST SWAP1 POP PUSH1 0x20 DUP2 ADD SWAP1 POP SWAP2 SWAP1 POP JUMP JUMPDEST PUSH0 PUSH2 0x21B0 PUSH2 0x21AB DUP5 PUSH2 0x216E JUMP JUMPDEST PUSH2 0x20A8 JUMP JUMPDEST SWAP1 POP DUP3 DUP2 MSTORE PUSH1 0x20 DUP2 ADD DUP5 DUP5 DUP5 ADD GT ISZERO PUSH2 0x21CC JUMPI PUSH2 0x21CB PUSH2 0x2036 JUMP JUMPDEST JUMPDEST PUSH2 0x21D7 DUP5 DUP3 DUP6 PUSH2 0x20F2 JUMP JUMPDEST POP SWAP4 SWAP3 POP POP POP JUMP JUMPDEST PUSH0 DUP3 PUSH1 0x1F DUP4 ADD SLT PUSH2 0x21F3 JUMPI PUSH2 0x21F2 PUSH2 0x2032 JUMP JUMPDEST JUMPDEST DUP2 CALLDATALOAD PUSH2 0x2203 DUP5 DUP3 PUSH1 0x20 DUP7 ADD PUSH2 0x219E JUMP JUMPDEST SWAP2 POP POP SWAP3 SWAP2 POP POP JUMP JUMPDEST PUSH0 DUP1 PUSH0 DUP1 PUSH0 PUSH1 0xA0 DUP7 DUP9 SUB SLT ISZERO PUSH2 0x2225 JUMPI PUSH2 0x2224 PUSH2 0x1F17 JUMP JUMPDEST JUMPDEST PUSH0 PUSH2 0x2232 DUP9 DUP3 DUP10 ADD PUSH2 0x1F65 JUMP JUMPDEST SWAP6 POP POP PUSH1 0x20 PUSH2 0x2243 DUP9 DUP3 DUP10 ADD PUSH2 0x201E JUMP JUMPDEST SWAP5 POP POP PUSH1 0x40 DUP7 ADD CALLDATALOAD PUSH8 0xFFFFFFFFFFFFFFFF DUP2 GT ISZERO PUSH2 0x2264 JUMPI PUSH2 0x2263 PUSH2 0x1F1B JUMP JUMPDEST JUMPDEST PUSH2 0x2270 DUP9 DUP3 DUP10 ADD PUSH2 0x2141 JUMP JUMPDEST SWAP4 POP POP PUSH1 0x60 DUP7 ADD CALLDATALOAD PUSH8 0xFFFFFFFFFFFFFFFF DUP2 GT ISZERO PUSH2 0x2291 JUMPI PUSH2 0x2290 PUSH2 0x1F1B JUMP JUMPDEST JUMPDEST PUSH2 0x229D DUP9 DUP3 DUP10 ADD PUSH2 0x21DF JUMP JUMPDEST SWAP3 POP POP PUSH1 0x80 PUSH2 0x22AE DUP9 DUP3 DUP10 ADD PUSH2 0x201E JUMP JUMPDEST SWAP2 POP POP SWAP3 SWAP6 POP SWAP3 SWAP6 SWAP1 SWAP4 POP JUMP JUMPDEST PUSH0 DUP2 SWAP1 POP SWAP2 SWAP1 POP JUMP JUMPDEST PUSH2 0x22CD DUP2 PUSH2 0x22BB JUMP JUMPDEST DUP3 MSTORE POP POP JUMP JUMPDEST PUSH0 PUSH1 0x20 DUP3 ADD SWAP1 POP PUSH2 0x22E6 PUSH0 DUP4 ADD DUP5 PUSH2 0x22C4 JUMP JUMPDEST SWAP3 SWAP2 POP POP JUMP JUMPDEST PUSH0 DUP1 PUSH1 0x40 DUP4 DUP6 SUB SLT ISZERO PUSH2 0x2302 JUMPI PUSH2 0x2301 PUSH2 0x1F17 JUMP JUMPDEST JUMPDEST PUSH0 PUSH2 0x230F DUP6 DUP3 DUP7 ADD PUSH2 0x201E JUMP JUMPDEST SWAP3 POP POP PUSH1 0x20 PUSH2 0x2320 DUP6 DUP3 DUP7 ADD PUSH2 0x201E JUMP JUMPDEST SWAP2 POP POP SWAP3 POP SWAP3 SWAP1 POP JUMP JUMPDEST PUSH2 0x2333 DUP2 PUSH2 0x22BB JUMP JUMPDEST DUP2 EQ PUSH2 0x233D JUMPI PUSH0 DUP1 REVERT JUMPDEST POP JUMP JUMPDEST PUSH0 DUP2 CALLDATALOAD SWAP1 POP PUSH2 0x234E DUP2 PUSH2 0x232A JUMP JUMPDEST SWAP3 SWAP2 POP POP JUMP JUMPDEST PUSH0 PUSH1 0x20 DUP3 DUP5 SUB SLT ISZERO PUSH2 0x2369 JUMPI PUSH2 0x2368 PUSH2 0x1F17 JUMP JUMPDEST JUMPDEST PUSH0 PUSH2 0x2376 DUP5 DUP3 DUP6 ADD PUSH2 0x2340 JUMP JUMPDEST SWAP2 POP POP SWAP3 SWAP2 POP POP JUMP JUMPDEST PUSH0 PUSH1 0x20 DUP3 DUP5 SUB SLT ISZERO PUSH2 0x2394 JUMPI PUSH2 0x2393 PUSH2 0x1F17 JUMP JUMPDEST JUMPDEST PUSH0 PUSH2 0x23A1 DUP5 DUP3 DUP6 ADD PUSH2 0x201E JUMP JUMPDEST SWAP2 POP POP SWAP3 SWAP2 POP POP JUMP JUMPDEST PUSH2 0x23B3 DUP2 PUSH2 0x1F3E JUMP JUMPDEST DUP3 MSTORE POP POP JUMP JUMPDEST PUSH0 PUSH1 0x20 DUP3 ADD SWAP1 POP PUSH2 0x23CC PUSH0 DUP4 ADD DUP5 PUSH2 0x23AA JUMP JUMPDEST SWAP3 SWAP2 POP POP JUMP JUMPDEST PUSH0 DUP2 MLOAD SWAP1 POP SWAP2 SWAP1 POP JUMP JUMPDEST PUSH0 DUP3 DUP3 MSTORE PUSH1 0x20 DUP3 ADD SWAP1 POP SWAP3 SWAP2 POP POP JUMP JUMPDEST DUP3 DUP2 DUP4 MCOPY PUSH0 DUP4 DUP4 ADD MSTORE POP POP POP JUMP JUMPDEST PUSH0 PUSH2 0x2404 DUP3 PUSH2 0x23D2 JUMP JUMPDEST PUSH2 0x240E DUP2 DUP6 PUSH2 0x23DC JUMP JUMPDEST SWAP4 POP PUSH2 0x241E DUP2 DUP6 PUSH1 0x20 DUP7 ADD PUSH2 0x23EC JUMP JUMPDEST PUSH2 0x2427 DUP2 PUSH2 0x203A JUMP JUMPDEST DUP5 ADD SWAP2 POP POP SWAP3 SWAP2 POP POP JUMP JUMPDEST PUSH0 DUP2 MLOAD SWAP1 POP SWAP2 SWAP1 POP JUMP JUMPDEST PUSH0 DUP3 DUP3 MSTORE PUSH1 0x20 DUP3 ADD SWAP1 POP SWAP3 SWAP2 POP POP JUMP JUMPDEST PUSH0 PUSH2 0x2456 DUP3 PUSH2 0x2432 JUMP JUMPDEST PUSH2 0x2460 DUP2 DUP6 PUSH2 0x243C JUMP JUMPDEST SWAP4 POP PUSH2 0x2470 DUP2 DUP6 PUSH1 0x20 DUP7 ADD PUSH2 0x23EC JUMP JUMPDEST PUSH2 0x2479 DUP2 PUSH2 0x203A JUMP JUMPDEST DUP5 ADD SWAP2 POP POP SWAP3 SWAP2 POP POP JUMP JUMPDEST PUSH0 PUSH1 0xC0 DUP3 ADD SWAP1 POP PUSH2 0x2497 PUSH0 DUP4 ADD DUP10 PUSH2 0x23AA JUMP JUMPDEST PUSH2 0x24A4 PUSH1 0x20 DUP4 ADD DUP9 PUSH2 0x1FE0 JUMP JUMPDEST DUP2 DUP2 SUB PUSH1 0x40 DUP4 ADD MSTORE PUSH2 0x24B6 DUP2 DUP8 PUSH2 0x23FA JUMP JUMPDEST SWAP1 POP DUP2 DUP2 SUB PUSH1 0x60 DUP4 ADD MSTORE PUSH2 0x24CA DUP2 DUP7 PUSH2 0x244C JUMP JUMPDEST SWAP1 POP PUSH2 0x24D9 PUSH1 0x80 DUP4 ADD DUP6 PUSH2 0x1FE0 JUMP JUMPDEST PUSH2 0x24E6 PUSH1 0xA0 DUP4 ADD DUP5 PUSH2 0x1FAF JUMP JUMPDEST SWAP8 SWAP7 POP POP POP POP POP POP POP JUMP JUMPDEST PUSH32 0x4F6E6C79206F776E65722063616E206578656375746520746869732E00000000 PUSH0 DUP3 ADD MSTORE POP JUMP JUMPDEST PUSH0 PUSH2 0x2525 PUSH1 0x1C DUP4 PUSH2 0x23DC JUMP JUMPDEST SWAP2 POP PUSH2 0x2530 DUP3 PUSH2 0x24F1 JUMP JUMPDEST PUSH1 0x20 DUP3 ADD SWAP1 POP SWAP2 SWAP1 POP JUMP JUMPDEST PUSH0 PUSH1 0x20 DUP3 ADD SWAP1 POP DUP2 DUP2 SUB PUSH0 DUP4 ADD MSTORE PUSH2 0x2552 DUP2 PUSH2 0x2519 JUMP JUMPDEST SWAP1 POP SWAP2 SWAP1 POP JUMP JUMPDEST PUSH32 0x566F74696E6720697320616C7265616479206163746976652E00000000000000 PUSH0 DUP3 ADD MSTORE POP JUMP JUMPDEST PUSH0 PUSH2 0x258D PUSH1 0x19 DUP4 PUSH2 0x23DC JUMP JUMPDEST SWAP2 POP PUSH2 0x2598 DUP3 PUSH2 0x2559 JUMP JUMPDEST PUSH1 0x20 DUP3 ADD SWAP1 POP SWAP2 SWAP1 POP JUMP JUMPDEST PUSH0 PUSH1 0x20 DUP3 ADD SWAP1 POP DUP2 DUP2 SUB PUSH0 DUP4 ADD MSTORE PUSH2 0x25BA DUP2 PUSH2 0x2581 JUMP JUMPDEST SWAP1 POP SWAP2 SWAP1 POP JUMP JUMPDEST PUSH32 0x4E6F207265676973746572656420757365727320617661696C61626C652E0000 PUSH0 DUP3 ADD MSTORE POP JUMP JUMPDEST PUSH0 PUSH2 0x25F5 PUSH1 0x1E DUP4 PUSH2 0x23DC JUMP JUMPDEST SWAP2 POP PUSH2 0x2600 DUP3 PUSH2 0x25C1 JUMP JUMPDEST PUSH1 0x20 DUP3 ADD SWAP1 POP SWAP2 SWAP1 POP JUMP JUMPDEST PUSH0 PUSH1 0x20 DUP3 ADD SWAP1 POP DUP2 DUP2 SUB PUSH0 DUP4 ADD MSTORE PUSH2 0x2622 DUP2 PUSH2 0x25E9 JUMP JUMPDEST SWAP1 POP SWAP2 SWAP1 POP JUMP JUMPDEST PUSH32 0x4E487B7100000000000000000000000000000000000000000000000000000000 PUSH0 MSTORE PUSH1 0x11 PUSH1 0x4 MSTORE PUSH1 0x24 PUSH0 REVERT JUMPDEST PUSH0 PUSH2 0x2660 DUP3 PUSH2 0x1FD7 JUMP JUMPDEST SWAP2 POP PUSH2 0x266B DUP4 PUSH2 0x1FD7 JUMP JUMPDEST SWAP3 POP DUP3 DUP3 ADD SWAP1 POP DUP1 DUP3 GT ISZERO PUSH2 0x2683 JUMPI PUSH2 0x2682 PUSH2 0x2629 JUMP JUMPDEST JUMPDEST SWAP3 SWAP2 POP POP JUMP JUMPDEST PUSH32 0x5573657220616C726561647920726567697374657265642E0000000000000000 PUSH0 DUP3 ADD MSTORE POP JUMP JUMPDEST PUSH0 PUSH2 0x26BD PUSH1 0x18 DUP4 PUSH2 0x23DC JUMP JUMPDEST SWAP2 POP PUSH2 0x26C8 DUP3 PUSH2 0x2689 JUMP JUMPDEST PUSH1 0x20 DUP3 ADD SWAP1 POP SWAP2 SWAP1 POP JUMP JUMPDEST PUSH0 PUSH1 0x20 DUP3 ADD SWAP1 POP DUP2 DUP2 SUB PUSH0 DUP4 ADD MSTORE PUSH2 0x26EA DUP2 PUSH2 0x26B1 JUMP JUMPDEST SWAP1 POP SWAP2 SWAP1 POP JUMP JUMPDEST PUSH32 0x496E76616C696420677261636520706572696F642E0000000000000000000000 PUSH0 DUP3 ADD MSTORE POP JUMP JUMPDEST PUSH0 PUSH2 0x2725 PUSH1 0x15 DUP4 PUSH2 0x23DC JUMP JUMPDEST SWAP2 POP PUSH2 0x2730 DUP3 PUSH2 0x26F1 JUMP JUMPDEST PUSH1 0x20 DUP3 ADD SWAP1 POP SWAP2 SWAP1 POP JUMP JUMPDEST PUSH0 PUSH1 0x20 DUP3 ADD SWAP1 POP DUP2 DUP2 SUB PUSH0 DUP4 ADD MSTORE PUSH2 0x2752 DUP2 PUSH2 0x2719 JUMP JUMPDEST SWAP1 POP SWAP2 SWAP1 POP JUMP JUMPDEST PUSH0 PUSH1 0xA0 DUP3 ADD SWAP1 POP PUSH2 0x276C PUSH0 DUP4 ADD DUP9 PUSH2 0x23AA JUMP JUMPDEST PUSH2 0x2779 PUSH1 0x20 DUP4 ADD DUP8 PUSH2 0x1FE0 JUMP JUMPDEST DUP2 DUP2 SUB PUSH1 0x40 DUP4 ADD MSTORE PUSH2 0x278B DUP2 DUP7 PUSH2 0x23FA JUMP JUMPDEST SWAP1 POP DUP2 DUP2 SUB PUSH1 0x60 DUP4 ADD MSTORE PUSH2 0x279F DUP2 DUP6 PUSH2 0x244C JUMP JUMPDEST SWAP1 POP PUSH2 0x27AE PUSH1 0x80 DUP4 ADD DUP5 PUSH2 0x1FE0 JUMP JUMPDEST SWAP7 SWAP6 POP POP POP POP POP POP JUMP JUMPDEST PUSH32 0x4E487B7100000000000000000000000000000000000000000000000000000000 PUSH0 MSTORE PUSH1 0x22 PUSH1 0x4 MSTORE PUSH1 0x24 PUSH0 REVERT JUMPDEST PUSH0 PUSH1 0x2 DUP3 DIV SWAP1 POP PUSH1 0x1 DUP3 AND DUP1 PUSH2 0x27FC JUMPI PUSH1 0x7F DUP3 AND SWAP2 POP JUMPDEST PUSH1 0x20 DUP3 LT DUP2 SUB PUSH2 0x280F JUMPI PUSH2 0x280E PUSH2 0x27B8 JUMP JUMPDEST JUMPDEST POP SWAP2 SWAP1 POP JUMP JUMPDEST PUSH0 DUP2 SWAP1 POP DUP2 PUSH0 MSTORE PUSH1 0x20 PUSH0 KECCAK256 SWAP1 POP SWAP2 SWAP1 POP JUMP JUMPDEST PUSH0 PUSH1 0x20 PUSH1 0x1F DUP4 ADD DIV SWAP1 POP SWAP2 SWAP1 POP JUMP JUMPDEST PUSH0 DUP3 DUP3 SHL SWAP1 POP SWAP3 SWAP2 POP POP JUMP JUMPDEST PUSH0 PUSH1 0x8 DUP4 MUL PUSH2 0x2871 PUSH32 0xFFFFFFFFFFFFFFFFFFFFFFFFFFFFFFFFFFFFFFFFFFFFFFFFFFFFFFFFFFFFFFFF DUP3 PUSH2 0x2836 JUMP JUMPDEST PUSH2 0x287B DUP7 DUP4 PUSH2 0x2836 JUMP JUMPDEST SWAP6 POP DUP1 NOT DUP5 AND SWAP4 POP DUP1 DUP7 AND DUP5 OR SWAP3 POP POP POP SWAP4 SWAP3 POP POP POP JUMP JUMPDEST PUSH0 DUP2 SWAP1 POP SWAP2 SWAP1 POP JUMP JUMPDEST PUSH0 PUSH2 0x28B6 PUSH2 0x28B1 PUSH2 0x28AC DUP5 PUSH2 0x1FD7 JUMP JUMPDEST PUSH2 0x2893 JUMP JUMPDEST PUSH2 0x1FD7 JUMP JUMPDEST SWAP1 POP SWAP2 SWAP1 POP JUMP JUMPDEST PUSH0 DUP2 SWAP1 POP SWAP2 SWAP1 POP JUMP JUMPDEST PUSH2 0x28CF DUP4 PUSH2 0x289C JUMP JUMPDEST PUSH2 0x28E3 PUSH2 0x28DB DUP3 PUSH2 0x28BD JUMP JUMPDEST DUP5 DUP5 SLOAD PUSH2 0x2842 JUMP JUMPDEST DUP3 SSTORE POP POP POP POP JUMP JUMPDEST PUSH0 SWAP1 JUMP JUMPDEST PUSH2 0x28F7 PUSH2 0x28EB JUMP JUMPDEST PUSH2 0x2902 DUP2 DUP5 DUP5 PUSH2 0x28C6 JUMP JUMPDEST POP POP POP JUMP JUMPDEST JUMPDEST DUP2 DUP2 LT ISZERO PUSH2 0x2925 JUMPI PUSH2 0x291A PUSH0 DUP3 PUSH2 0x28EF JUMP JUMPDEST PUSH1 0x1 DUP2 ADD SWAP1 POP PUSH2 0x2908 JUMP JUMPDEST POP POP JUMP JUMPDEST PUSH1 0x1F DUP3 GT ISZERO PUSH2 0x296A JUMPI PUSH2 0x293B DUP2 PUSH2 0x2815 JUMP JUMPDEST PUSH2 0x2944 DUP5 PUSH2 0x2827 JUMP JUMPDEST DUP2 ADD PUSH1 0x20 DUP6 LT ISZERO PUSH2 0x2953 JUMPI DUP2 SWAP1 POP JUMPDEST PUSH2 0x2967 PUSH2 0x295F DUP6 PUSH2 0x2827 JUMP JUMPDEST DUP4 ADD DUP3 PUSH2 0x2907 JUMP JUMPDEST POP POP JUMPDEST POP POP POP JUMP JUMPDEST PUSH0 DUP3 DUP3 SHR SWAP1 POP SWAP3 SWAP2 POP POP JUMP JUMPDEST PUSH0 PUSH2 0x298A PUSH0 NOT DUP5 PUSH1 0x8 MUL PUSH2 0x296F JUMP JUMPDEST NOT DUP1 DUP4 AND SWAP2 POP POP SWAP3 SWAP2 POP POP JUMP JUMPDEST PUSH0 PUSH2 0x29A2 DUP4 DUP4 PUSH2 0x297B JUMP JUMPDEST SWAP2 POP DUP3 PUSH1 0x2 MUL DUP3 OR SWAP1 POP SWAP3 SWAP2 POP POP JUMP JUMPDEST PUSH2 0x29BB DUP3 PUSH2 0x23D2 JUMP JUMPDEST PUSH8 0xFFFFFFFFFFFFFFFF DUP2 GT ISZERO PUSH2 0x29D4 JUMPI PUSH2 0x29D3 PUSH2 0x204A JUMP JUMPDEST JUMPDEST PUSH2 0x29DE DUP3 SLOAD PUSH2 0x27E5 JUMP JUMPDEST PUSH2 0x29E9 DUP3 DUP3 DUP6 PUSH2 0x2929 JUMP JUMPDEST PUSH0 PUSH1 0x20 SWAP1 POP PUSH1 0x1F DUP4 GT PUSH1 0x1 DUP2 EQ PUSH2 0x2A1A JUMPI PUSH0 DUP5 ISZERO PUSH2 0x2A08 JUMPI DUP3 DUP8 ADD MLOAD SWAP1 POP JUMPDEST PUSH2 0x2A12 DUP6 DUP3 PUSH2 0x2997 JUMP JUMPDEST DUP7 SSTORE POP PUSH2 0x2A79 JUMP JUMPDEST PUSH1 0x1F NOT DUP5 AND PUSH2 0x2A28 DUP7 PUSH2 0x2815 JUMP JUMPDEST PUSH0 JUMPDEST DUP3 DUP2 LT ISZERO PUSH2 0x2A4F JUMPI DUP5 DUP10 ADD MLOAD DUP3 SSTORE PUSH1 0x1 DUP3 ADD SWAP2 POP PUSH1 0x20 DUP6 ADD SWAP5 POP PUSH1 0x20 DUP2 ADD SWAP1 POP PUSH2 0x2A2A JUMP JUMPDEST DUP7 DUP4 LT ISZERO PUSH2 0x2A6C JUMPI DUP5 DUP10 ADD MLOAD PUSH2 0x2A68 PUSH1 0x1F DUP10 AND DUP3 PUSH2 0x297B JUMP JUMPDEST DUP4 SSTORE POP JUMPDEST PUSH1 0x1 PUSH1 0x2 DUP9 MUL ADD DUP9 SSTORE POP POP POP JUMPDEST POP POP POP POP POP POP JUMP JUMPDEST PUSH0 DUP2 SWAP1 POP DUP2 PUSH0 MSTORE PUSH1 0x20 PUSH0 KECCAK256 SWAP1 POP SWAP2 SWAP1 POP JUMP JUMPDEST PUSH1 0x1F DUP3 GT ISZERO PUSH2 0x2AD4 JUMPI PUSH2 0x2AA5 DUP2 PUSH2 0x2A81 JUMP JUMPDEST PUSH2 0x2AAE DUP5 PUSH2 0x2827 JUMP JUMPDEST DUP2 ADD PUSH1 0x20 DUP6 LT ISZERO PUSH2 0x2ABD JUMPI DUP2 SWAP1 POP JUMPDEST PUSH2 0x2AD1 PUSH2 0x2AC9 DUP6 PUSH2 0x2827 JUMP JUMPDEST DUP4 ADD DUP3 PUSH2 0x2907 JUMP JUMPDEST POP POP JUMPDEST POP POP POP JUMP JUMPDEST PUSH2 0x2AE2 DUP3 PUSH2 0x2432 JUMP JUMPDEST PUSH8 0xFFFFFFFFFFFFFFFF DUP2 GT ISZERO PUSH2 0x2AFB JUMPI PUSH2 0x2AFA PUSH2 0x204A JUMP JUMPDEST JUMPDEST PUSH2 0x2B05 DUP3 SLOAD PUSH2 0x27E5 JUMP JUMPDEST PUSH2 0x2B10 DUP3 DUP3 DUP6 PUSH2 0x2A93 JUMP JUMPDEST PUSH0 PUSH1 0x20 SWAP1 POP PUSH1 0x1F DUP4 GT PUSH1 0x1 DUP2 EQ PUSH2 0x2B41 JUMPI PUSH0 DUP5 ISZERO PUSH2 0x2B2F JUMPI DUP3 DUP8 ADD MLOAD SWAP1 POP JUMPDEST PUSH2 0x2B39 DUP6 DUP3 PUSH2 0x2997 JUMP JUMPDEST DUP7 SSTORE POP PUSH2 0x2BA0 JUMP JUMPDEST PUSH1 0x1F NOT DUP5 AND PUSH2 0x2B4F DUP7 PUSH2 0x2A81 JUMP JUMPDEST PUSH0 JUMPDEST DUP3 DUP2 LT ISZERO PUSH2 0x2B76 JUMPI DUP5 DUP10 ADD MLOAD DUP3 SSTORE PUSH1 0x1 DUP3 ADD SWAP2 POP PUSH1 0x20 DUP6 ADD SWAP5 POP PUSH1 0x20 DUP2 ADD SWAP1 POP PUSH2 0x2B51 JUMP JUMPDEST DUP7 DUP4 LT ISZERO PUSH2 0x2B93 JUMPI DUP5 DUP10 ADD MLOAD PUSH2 0x2B8F PUSH1 0x1F DUP10 AND DUP3 PUSH2 0x297B JUMP JUMPDEST DUP4 SSTORE POP JUMPDEST PUSH1 0x1 PUSH1 0x2 DUP9 MUL ADD DUP9 SSTORE POP POP POP JUMPDEST POP POP POP POP POP POP JUMP JUMPDEST PUSH0 PUSH1 0xA0 DUP3 ADD SWAP1 POP PUSH2 0x2BBB PUSH0 DUP4 ADD DUP9 PUSH2 0x22C4 JUMP JUMPDEST PUSH2 0x2BC8 PUSH1 0x20 DUP4 ADD DUP8 PUSH2 0x1FE0 JUMP JUMPDEST DUP2 DUP2 SUB PUSH1 0x40 DUP4 ADD MSTORE PUSH2 0x2BDA DUP2 DUP7 PUSH2 0x23FA JUMP JUMPDEST SWAP1 POP DUP2 DUP2 SUB PUSH1 0x60 DUP4 ADD MSTORE PUSH2 0x2BEE DUP2 DUP6 PUSH2 0x244C JUMP JUMPDEST SWAP1 POP PUSH2 0x2BFD PUSH1 0x80 DUP4 ADD DUP5 PUSH2 0x1FE0 JUMP JUMPDEST SWAP7 SWAP6 POP POP POP POP POP POP JUMP JUMPDEST PUSH32 0x496E76616C696420677261636520706572696F642072616E67652E0000000000 PUSH0 DUP3 ADD MSTORE POP JUMP JUMPDEST PUSH0 PUSH2 0x2C3B PUSH1 0x1B DUP4 PUSH2 0x23DC JUMP JUMPDEST SWAP2 POP PUSH2 0x2C46 DUP3 PUSH2 0x2C07 JUMP JUMPDEST PUSH1 0x20 DUP3 ADD SWAP1 POP SWAP2 SWAP1 POP JUMP JUMPDEST PUSH0 PUSH1 0x20 DUP3 ADD SWAP1 POP DUP2 DUP2 SUB PUSH0 DUP4 ADD MSTORE PUSH2 0x2C68 DUP2 PUSH2 0x2C2F JUMP JUMPDEST SWAP1 POP SWAP2 SWAP1 POP JUMP JUMPDEST PUSH32 0x5472616E73616374696F6E20646F6573206E6F742065786973742E0000000000 PUSH0 DUP3 ADD MSTORE POP JUMP JUMPDEST PUSH0 PUSH2 0x2CA3 PUSH1 0x1B DUP4 PUSH2 0x23DC JUMP JUMPDEST SWAP2 POP PUSH2 0x2CAE DUP3 PUSH2 0x2C6F JUMP JUMPDEST PUSH1 0x20 DUP3 ADD SWAP1 POP SWAP2 SWAP1 POP JUMP JUMPDEST PUSH0 PUSH1 0x20 DUP3 ADD SWAP1 POP DUP2 DUP2 SUB PUSH0 DUP4 ADD MSTORE PUSH2 0x2CD0 DUP2 PUSH2 0x2C97 JUMP JUMPDEST SWAP1 POP SWAP2 SWAP1 POP JUMP JUMPDEST PUSH32 0x5472616E73616374696F6E20616C72656164792065786563757465642E000000 PUSH0 DUP3 ADD MSTORE POP JUMP JUMPDEST PUSH0 PUSH2 0x2D0B PUSH1 0x1D DUP4 PUSH2 0x23DC JUMP JUMPDEST SWAP2 POP PUSH2 0x2D16 DUP3 PUSH2 0x2CD7 JUMP JUMPDEST PUSH1 0x20 DUP3 ADD SWAP1 POP SWAP2 SWAP1 POP JUMP JUMPDEST PUSH0 PUSH1 0x20 DUP3 ADD SWAP1 POP DUP2 DUP2 SUB PUSH0 DUP4 ADD MSTORE PUSH2 0x2D38 DUP2 PUSH2 0x2CFF JUMP JUMPDEST SWAP1 POP SWAP2 SWAP1 POP JUMP JUMPDEST PUSH32 0x50726F706F73616C2070686173652068617320656E6465642E00000000000000 PUSH0 DUP3 ADD MSTORE POP JUMP JUMPDEST PUSH0 PUSH2 0x2D73 PUSH1 0x19 DUP4 PUSH2 0x23DC JUMP JUMPDEST SWAP2 POP PUSH2 0x2D7E DUP3 PUSH2 0x2D3F JUMP JUMPDEST PUSH1 0x20 DUP3 ADD SWAP1 POP SWAP2 SWAP1 POP JUMP JUMPDEST PUSH0 PUSH1 0x20 DUP3 ADD SWAP1 POP DUP2 DUP2 SUB PUSH0 DUP4 ADD MSTORE PUSH2 0x2DA0 DUP2 PUSH2 0x2D67 JUMP JUMPDEST SWAP1 POP SWAP2 SWAP1 POP JUMP JUMPDEST PUSH32 0x4F776E657220697320616C72656164792070726F706F7365642E000000000000 PUSH0 DUP3 ADD MSTORE POP JUMP JUMPDEST PUSH0 PUSH2 0x2DDB PUSH1 0x1A DUP4 PUSH2 0x23DC JUMP JUMPDEST SWAP2 POP PUSH2 0x2DE6 DUP3 PUSH2 0x2DA7 JUMP JUMPDEST PUSH1 0x20 DUP3 ADD SWAP1 POP SWAP2 SWAP1 POP JUMP JUMPDEST PUSH0 PUSH1 0x20 DUP3 ADD SWAP1 POP DUP2 DUP2 SUB PUSH0 DUP4 ADD MSTORE PUSH2 0x2E08 DUP2 PUSH2 0x2DCF JUMP JUMPDEST SWAP1 POP SWAP2 SWAP1 POP JUMP JUMPDEST PUSH32 0x5472616E73616374696F6E206973207374696C6C206C6F636B65642E00000000 PUSH0 DUP3 ADD MSTORE POP JUMP JUMPDEST PUSH0 PUSH2 0x2E43 PUSH1 0x1C DUP4 PUSH2 0x23DC JUMP JUMPDEST SWAP2 POP PUSH2 0x2E4E DUP3 PUSH2 0x2E0F JUMP JUMPDEST PUSH1 0x20 DUP3 ADD SWAP1 POP SWAP2 SWAP1 POP JUMP JUMPDEST PUSH0 PUSH1 0x20 DUP3 ADD SWAP1 POP DUP2 DUP2 SUB PUSH0 DUP4 ADD MSTORE PUSH2 0x2E70 DUP2 PUSH2 0x2E37 JUMP JUMPDEST SWAP1 POP SWAP2 SWAP1 POP JUMP JUMPDEST PUSH0 DUP2 SWAP1 POP SWAP3 SWAP2 POP POP JUMP JUMPDEST PUSH0 DUP2 SLOAD PUSH2 0x2E8D DUP2 PUSH2 0x27E5 JUMP JUMPDEST PUSH2 0x2E97 DUP2 DUP7 PUSH2 0x2E77 JUMP JUMPDEST SWAP5 POP PUSH1 0x1 DUP3 AND PUSH0 DUP2 EQ PUSH2 0x2EB1 JUMPI PUSH1 0x1 DUP2 EQ PUSH2 0x2EC6 JUMPI PUSH2 0x2EF8 JUMP JUMPDEST PUSH1 0xFF NOT DUP4 AND DUP7 MSTORE DUP2 ISZERO ISZERO DUP3 MUL DUP7 ADD SWAP4 POP PUSH2 0x2EF8 JUMP JUMPDEST PUSH2 0x2ECF DUP6 PUSH2 0x2A81 JUMP JUMPDEST PUSH0 JUMPDEST DUP4 DUP2 LT ISZERO PUSH2 0x2EF0 JUMPI DUP2 SLOAD DUP2 DUP10 ADD MSTORE PUSH1 0x1 DUP3 ADD SWAP2 POP PUSH1 0x20 DUP2 ADD SWAP1 POP PUSH2 0x2ED1 JUMP JUMPDEST DUP4 DUP9 ADD SWAP6 POP POP POP JUMPDEST POP POP POP SWAP3 SWAP2 POP POP JUMP JUMPDEST PUSH0 PUSH2 0x2F0C DUP3 DUP5 PUSH2 0x2E81 JUMP JUMPDEST SWAP2 POP DUP2 SWAP1 POP SWAP3 SWAP2 POP POP JUMP JUMPDEST PUSH32 0x5472616E73616374696F6E206661696C65642E00000000000000000000000000 PUSH0 DUP3 ADD MSTORE POP JUMP JUMPDEST PUSH0 PUSH2 0x2F4B PUSH1 0x13 DUP4 PUSH2 0x23DC JUMP JUMPDEST SWAP2 POP PUSH2 0x2F56 DUP3 PUSH2 0x2F17 JUMP JUMPDEST PUSH1 0x20 DUP3 ADD SWAP1 POP SWAP2 SWAP1 POP JUMP JUMPDEST PUSH0 PUSH1 0x20 DUP3 ADD SWAP1 POP DUP2 DUP2 SUB PUSH0 DUP4 ADD MSTORE PUSH2 0x2F78 DUP2 PUSH2 0x2F3F JUMP JUMPDEST SWAP1 POP SWAP2 SWAP1 POP JUMP JUMPDEST PUSH32 0x566F74696E67207068617365206973206E6F74206163746976652E0000000000 PUSH0 DUP3 ADD MSTORE POP JUMP JUMPDEST PUSH0 PUSH2 0x2FB3 PUSH1 0x1B DUP4 PUSH2 0x23DC JUMP JUMPDEST SWAP2 POP PUSH2 0x2FBE DUP3 PUSH2 0x2F7F JUMP JUMPDEST PUSH1 0x20 DUP3 ADD SWAP1 POP SWAP2 SWAP1 POP JUMP JUMPDEST PUSH0 PUSH1 0x20 DUP3 ADD SWAP1 POP DUP2 DUP2 SUB PUSH0 DUP4 ADD MSTORE PUSH2 0x2FE0 DUP2 PUSH2 0x2FA7 JUMP JUMPDEST SWAP1 POP SWAP2 SWAP1 POP JUMP JUMPDEST PUSH32 0x4E6F206F776E65722070726F706F7365642E0000000000000000000000000000 PUSH0 DUP3 ADD MSTORE POP JUMP JUMPDEST PUSH0 PUSH2 0x301B PUSH1 0x12 DUP4 PUSH2 0x23DC JUMP JUMPDEST SWAP2 POP PUSH2 0x3026 DUP3 PUSH2 0x2FE7 JUMP JUMPDEST PUSH1 0x20 DUP3 ADD SWAP1 POP SWAP2 SWAP1 POP JUMP JUMPDEST PUSH0 PUSH1 0x20 DUP3 ADD SWAP1 POP DUP2 DUP2 SUB PUSH0 DUP4 ADD MSTORE PUSH2 0x3048 DUP2 PUSH2 0x300F JUMP JUMPDEST SWAP1 POP SWAP2 SWAP1 POP JUMP JUMPDEST PUSH32 0x4F6E6C7920726567697374657265642075736572732063616E20766F74652E00 PUSH0 DUP3 ADD MSTORE POP JUMP JUMPDEST PUSH0 PUSH2 0x3083 PUSH1 0x1F DUP4 PUSH2 0x23DC JUMP JUMPDEST SWAP2 POP PUSH2 0x308E DUP3 PUSH2 0x304F JUMP JUMPDEST PUSH1 0x20 DUP3 ADD SWAP1 POP SWAP2 SWAP1 POP JUMP JUMPDEST PUSH0 PUSH1 0x20 DUP3 ADD SWAP1 POP DUP2 DUP2 SUB PUSH0 DUP4 ADD MSTORE PUSH2 0x30B0 DUP2 PUSH2 0x3077 JUMP JUMPDEST SWAP1 POP SWAP2 SWAP1 POP JUMP JUMPDEST PUSH32 0x416C726561647920766F7465642E000000000000000000000000000000000000 PUSH0 DUP3 ADD MSTORE POP JUMP JUMPDEST PUSH0 PUSH2 0x30EB PUSH1 0xE DUP4 PUSH2 0x23DC JUMP JUMPDEST SWAP2 POP PUSH2 0x30F6 DUP3 PUSH2 0x30B7 JUMP JUMPDEST PUSH1 0x20 DUP3 ADD SWAP1 POP SWAP2 SWAP1 POP JUMP JUMPDEST PUSH0 PUSH1 0x20 DUP3 ADD SWAP1 POP DUP2 DUP2 SUB PUSH0 DUP4 ADD MSTORE PUSH2 0x3118 DUP2 PUSH2 0x30DF JUMP JUMPDEST SWAP1 POP SWAP2 SWAP1 POP JUMP JUMPDEST PUSH32 0x55736572206E6F7420726567697374657265642E000000000000000000000000 PUSH0 DUP3 ADD MSTORE POP JUMP JUMPDEST PUSH0 PUSH2 0x3153 PUSH1 0x14 DUP4 PUSH2 0x23DC JUMP JUMPDEST SWAP2 POP PUSH2 0x315E DUP3 PUSH2 0x311F JUMP JUMPDEST PUSH1 0x20 DUP3 ADD SWAP1 POP SWAP2 SWAP1 POP JUMP JUMPDEST PUSH0 PUSH1 0x20 DUP3 ADD SWAP1 POP DUP2 DUP2 SUB PUSH0 DUP4 ADD MSTORE PUSH2 0x3180 DUP2 PUSH2 0x3147 JUMP JUMPDEST SWAP1 POP SWAP2 SWAP1 POP JUMP JUMPDEST PUSH32 0x4E487B7100000000000000000000000000000000000000000000000000000000 PUSH0 MSTORE PUSH1 0x32 PUSH1 0x4 MSTORE PUSH1 0x24 PUSH0 REVERT JUMPDEST PUSH0 PUSH2 0x31BE DUP3 PUSH2 0x1FD7 JUMP JUMPDEST SWAP2 POP PUSH2 0x31C9 DUP4 PUSH2 0x1FD7 JUMP JUMPDEST SWAP3 POP DUP3 DUP3 SUB SWAP1 POP DUP2 DUP2 GT ISZERO PUSH2 0x31E1 JUMPI PUSH2 0x31E0 PUSH2 0x2629 JUMP JUMPDEST JUMPDEST SWAP3 SWAP2 POP POP JUMP JUMPDEST PUSH32 0x4E487B7100000000000000000000000000000000000000000000000000000000 PUSH0 MSTORE PUSH1 0x31 PUSH1 0x4 MSTORE PUSH1 0x24 PUSH0 REVERT JUMPDEST PUSH32 0x566F74696E6720706572696F6420686173206E6F7420656E6465642E00000000 PUSH0 DUP3 ADD MSTORE POP JUMP JUMPDEST PUSH0 PUSH2 0x3248 PUSH1 0x1C DUP4 PUSH2 0x23DC JUMP JUMPDEST SWAP2 POP PUSH2 0x3253 DUP3 PUSH2 0x3214 JUMP JUMPDEST PUSH1 0x20 DUP3 ADD SWAP1 POP SWAP2 SWAP1 POP JUMP JUMPDEST PUSH0 PUSH1 0x20 DUP3 ADD SWAP1 POP DUP2 DUP2 SUB PUSH0 DUP4 ADD MSTORE PUSH2 0x3275 DUP2 PUSH2 0x323C JUMP JUMPDEST SWAP1 POP SWAP2 SWAP1 POP JUMP JUMPDEST PUSH32 0x4E6F2070726F706F736564206F776E65722E0000000000000000000000000000 PUSH0 DUP3 ADD MSTORE POP JUMP JUMPDEST PUSH0 PUSH2 0x32B0 PUSH1 0x12 DUP4 PUSH2 0x23DC JUMP JUMPDEST SWAP2 POP PUSH2 0x32BB DUP3 PUSH2 0x327C JUMP JUMPDEST PUSH1 0x20 DUP3 ADD SWAP1 POP SWAP2 SWAP1 POP JUMP JUMPDEST PUSH0 PUSH1 0x20 DUP3 ADD SWAP1 POP DUP2 DUP2 SUB PUSH0 DUP4 ADD MSTORE PUSH2 0x32DD DUP2 PUSH2 0x32A4 JUMP JUMPDEST SWAP1 POP SWAP2 SWAP1 POP JUMP JUMPDEST PUSH0 PUSH2 0x32EE DUP3 PUSH2 0x1FD7 JUMP JUMPDEST SWAP2 POP PUSH2 0x32F9 DUP4 PUSH2 0x1FD7 JUMP JUMPDEST SWAP3 POP DUP3 DUP3 MUL PUSH2 0x3307 DUP2 PUSH2 0x1FD7 JUMP JUMPDEST SWAP2 POP DUP3 DUP3 DIV DUP5 EQ DUP4 ISZERO OR PUSH2 0x331E JUMPI PUSH2 0x331D PUSH2 0x2629 JUMP JUMPDEST JUMPDEST POP SWAP3 SWAP2 POP POP JUMP JUMPDEST PUSH32 0x4E487B7100000000000000000000000000000000000000000000000000000000 PUSH0 MSTORE PUSH1 0x12 PUSH1 0x4 MSTORE PUSH1 0x24 PUSH0 REVERT JUMPDEST PUSH0 PUSH2 0x335C DUP3 PUSH2 0x1FD7 JUMP JUMPDEST SWAP2 POP PUSH2 0x3367 DUP4 PUSH2 0x1FD7 JUMP JUMPDEST SWAP3 POP DUP3 PUSH2 0x3377 JUMPI PUSH2 0x3376 PUSH2 0x3325 JUMP JUMPDEST JUMPDEST DUP3 DUP3 DIV SWAP1 POP SWAP3 SWAP2 POP POP JUMP INVALID LOG2 PUSH5 0x6970667358 0x22 SLT KECCAK256 0xBD TIMESTAMP RETURN 0xED 0x29 RETURNDATASIZE 0xC2 SGT 0x24 0xE5 RETURN DUP1 SAR PREVRANDAO PUSH3 0x83558C PUSH17 0x13CA48A602D5139472890FF5DD64736F6C PUSH4 0x4300081A STOP CALLER "
		},
		"gasEstimates": {
			"creation": {
				"codeDepositCost": "2648000",
				"executionCost": "infinite",
				"totalCost": "infinite"
			},
			"external": {
				"cancelTransaction(bytes32)": "infinite",
				"deregisterUser(address)": "infinite",
				"executeTransaction(bytes32)": "infinite",
				"finalizeOwner()": "infinite",
				"isRegistered(address)": "2944",
				"isUserRegistered(address)": "2894",
				"maxGracePeriod()": "2470",
				"minGracePeriod()": "2559",
				"owner()": "2572",
				"proposalDeadline()": "2448",
				"proposeOwner(address)": "30259",
				"proposedOwner()": "2530",
				"queueTransaction(address,uint256,string,bytes,uint256)": "infinite",
				"queuedTransactions(bytes32)": "infinite",
				"registerUser(address)": "infinite",
				"registeredUsers(uint256)": "5077",
				"startVoting()": "infinite",
				"updateGracePeriod(uint256,uint256)": "infinite",
				"voteForOwner()": "infinite",
				"voteThreshold()": "2514",
				"votes(address)": "2846",
				"votingActive()": "2533",
				"votingEndTime()": "2471",
				"votingStartTime()": "2515"
			},
			"internal": {
				"getTotalVotes()": "infinite",
				"resetVoting()": "infinite",
				"updateVoteThreshold()": "infinite"
			}
		},
		"methodIdentifiers": {
			"cancelTransaction(bytes32)": "70ba3339",
			"deregisterUser(address)": "ec0f6db3",
			"executeTransaction(bytes32)": "c69ed5f2",
			"finalizeOwner()": "fd18eaec",
			"isRegistered(address)": "c3c5a547",
			"isUserRegistered(address)": "163f7522",
			"maxGracePeriod()": "84f2f0c4",
			"minGracePeriod()": "2916f2b4",
			"owner()": "8da5cb5b",
			"proposalDeadline()": "7ce1f844",
			"proposeOwner(address)": "b5ed298a",
			"proposedOwner()": "d153b60c",
			"queueTransaction(address,uint256,string,bytes,uint256)": "3a66f901",
			"queuedTransactions(bytes32)": "f2b06537",
			"registerUser(address)": "2199d5cd",
			"registeredUsers(uint256)": "7259e0f8",
			"startVoting()": "1ec6b60a",
			"updateGracePeriod(uint256,uint256)": "3f8bd5a0",
			"voteForOwner()": "d99822b6",
			"voteThreshold()": "4fe437d5",
			"votes(address)": "d8bff5a5",
			"votingActive()": "408e2727",
			"votingEndTime()": "1ea736e0",
			"votingStartTime()": "2019a608"
		}
	},
	"abi": [
		{
			"inputs": [
				{
					"internalType": "uint256",
					"name": "_minGracePeriod",
					"type": "uint256"
				},
				{
					"internalType": "uint256",
					"name": "_maxGracePeriod",
					"type": "uint256"
				}
			],
			"stateMutability": "nonpayable",
			"type": "constructor"
		},
		{
			"anonymous": false,
			"inputs": [
				{
					"indexed": true,
					"internalType": "address",
					"name": "proposedOwner",
					"type": "address"
				}
			],
			"name": "NewOwnerProposed",
			"type": "event"
		},
		{
			"anonymous": false,
			"inputs": [
				{
					"indexed": true,
					"internalType": "address",
					"name": "newOwner",
					"type": "address"
				}
			],
			"name": "OwnerChanged",
			"type": "event"
		},
		{
			"anonymous": false,
			"inputs": [
				{
					"indexed": false,
					"internalType": "bytes32",
					"name": "txId",
					"type": "bytes32"
				}
			],
			"name": "TransactionCancelled",
			"type": "event"
		},
		{
			"anonymous": false,
			"inputs": [
				{
					"indexed": false,
					"internalType": "bytes32",
					"name": "txId",
					"type": "bytes32"
				}
			],
			"name": "TransactionExecuted",
			"type": "event"
		},
		{
			"anonymous": false,
			"inputs": [
				{
					"indexed": false,
					"internalType": "bytes32",
					"name": "txId",
					"type": "bytes32"
				},
				{
					"indexed": true,
					"internalType": "address",
					"name": "target",
					"type": "address"
				},
				{
					"indexed": false,
					"internalType": "uint256",
					"name": "value",
					"type": "uint256"
				},
				{
					"indexed": false,
					"internalType": "string",
					"name": "signature",
					"type": "string"
				},
				{
					"indexed": false,
					"internalType": "bytes",
					"name": "data",
					"type": "bytes"
				},
				{
					"indexed": false,
					"internalType": "uint256",
					"name": "executeAt",
					"type": "uint256"
				}
			],
			"name": "TransactionQueued",
			"type": "event"
		},
		{
			"anonymous": false,
			"inputs": [
				{
					"indexed": true,
					"internalType": "address",
					"name": "newOwner",
					"type": "address"
				}
			],
			"name": "VotingFinalized",
			"type": "event"
		},
		{
			"inputs": [
				{
					"internalType": "bytes32",
					"name": "_txId",
					"type": "bytes32"
				}
			],
			"name": "cancelTransaction",
			"outputs": [],
			"stateMutability": "nonpayable",
			"type": "function"
		},
		{
			"inputs": [
				{
					"internalType": "address",
					"name": "_user",
					"type": "address"
				}
			],
			"name": "deregisterUser",
			"outputs": [],
			"stateMutability": "nonpayable",
			"type": "function"
		},
		{
			"inputs": [
				{
					"internalType": "bytes32",
					"name": "_txId",
					"type": "bytes32"
				}
			],
			"name": "executeTransaction",
			"outputs": [],
			"stateMutability": "payable",
			"type": "function"
		},
		{
			"inputs": [],
			"name": "finalizeOwner",
			"outputs": [],
			"stateMutability": "nonpayable",
			"type": "function"
		},
		{
			"inputs": [
				{
					"internalType": "address",
					"name": "",
					"type": "address"
				}
			],
			"name": "isRegistered",
			"outputs": [
				{
					"internalType": "bool",
					"name": "",
					"type": "bool"
				}
			],
			"stateMutability": "view",
			"type": "function"
		},
		{
			"inputs": [
				{
					"internalType": "address",
					"name": "_user",
					"type": "address"
				}
			],
			"name": "isUserRegistered",
			"outputs": [
				{
					"internalType": "bool",
					"name": "",
					"type": "bool"
				}
			],
			"stateMutability": "view",
			"type": "function"
		},
		{
			"inputs": [],
			"name": "maxGracePeriod",
			"outputs": [
				{
					"internalType": "uint256",
					"name": "",
					"type": "uint256"
				}
			],
			"stateMutability": "view",
			"type": "function"
		},
		{
			"inputs": [],
			"name": "minGracePeriod",
			"outputs": [
				{
					"internalType": "uint256",
					"name": "",
					"type": "uint256"
				}
			],
			"stateMutability": "view",
			"type": "function"
		},
		{
			"inputs": [],
			"name": "owner",
			"outputs": [
				{
					"internalType": "address",
					"name": "",
					"type": "address"
				}
			],
			"stateMutability": "view",
			"type": "function"
		},
		{
			"inputs": [],
			"name": "proposalDeadline",
			"outputs": [
				{
					"internalType": "uint256",
					"name": "",
					"type": "uint256"
				}
			],
			"stateMutability": "view",
			"type": "function"
		},
		{
			"inputs": [
				{
					"internalType": "address",
					"name": "_proposedOwner",
					"type": "address"
				}
			],
			"name": "proposeOwner",
			"outputs": [],
			"stateMutability": "nonpayable",
			"type": "function"
		},
		{
			"inputs": [],
			"name": "proposedOwner",
			"outputs": [
				{
					"internalType": "address",
					"name": "",
					"type": "address"
				}
			],
			"stateMutability": "view",
			"type": "function"
		},
		{
			"inputs": [
				{
					"internalType": "address",
					"name": "_target",
					"type": "address"
				},
				{
					"internalType": "uint256",
					"name": "_value",
					"type": "uint256"
				},
				{
					"internalType": "string",
					"name": "_signature",
					"type": "string"
				},
				{
					"internalType": "bytes",
					"name": "_data",
					"type": "bytes"
				},
				{
					"internalType": "uint256",
					"name": "_gracePeriod",
					"type": "uint256"
				}
			],
			"name": "queueTransaction",
			"outputs": [
				{
					"internalType": "bytes32",
					"name": "",
					"type": "bytes32"
				}
			],
			"stateMutability": "nonpayable",
			"type": "function"
		},
		{
			"inputs": [
				{
					"internalType": "bytes32",
					"name": "",
					"type": "bytes32"
				}
			],
			"name": "queuedTransactions",
			"outputs": [
				{
					"internalType": "address",
					"name": "target",
					"type": "address"
				},
				{
					"internalType": "uint256",
					"name": "value",
					"type": "uint256"
				},
				{
					"internalType": "string",
					"name": "signature",
					"type": "string"
				},
				{
					"internalType": "bytes",
					"name": "data",
					"type": "bytes"
				},
				{
					"internalType": "uint256",
					"name": "executeAt",
					"type": "uint256"
				},
				{
					"internalType": "bool",
					"name": "executed",
					"type": "bool"
				}
			],
			"stateMutability": "view",
			"type": "function"
		},
		{
			"inputs": [
				{
					"internalType": "address",
					"name": "_user",
					"type": "address"
				}
			],
			"name": "registerUser",
			"outputs": [],
			"stateMutability": "nonpayable",
			"type": "function"
		},
		{
			"inputs": [
				{
					"internalType": "uint256",
					"name": "",
					"type": "uint256"
				}
			],
			"name": "registeredUsers",
			"outputs": [
				{
					"internalType": "address",
					"name": "",
					"type": "address"
				}
			],
			"stateMutability": "view",
			"type": "function"
		},
		{
			"inputs": [],
			"name": "startVoting",
			"outputs": [],
			"stateMutability": "nonpayable",
			"type": "function"
		},
		{
			"inputs": [
				{
					"internalType": "uint256",
					"name": "_minGracePeriod",
					"type": "uint256"
				},
				{
					"internalType": "uint256",
					"name": "_maxGracePeriod",
					"type": "uint256"
				}
			],
			"name": "updateGracePeriod",
			"outputs": [],
			"stateMutability": "nonpayable",
			"type": "function"
		},
		{
			"inputs": [],
			"name": "voteForOwner",
			"outputs": [],
			"stateMutability": "nonpayable",
			"type": "function"
		},
		{
			"inputs": [],
			"name": "voteThreshold",
			"outputs": [
				{
					"internalType": "uint256",
					"name": "",
					"type": "uint256"
				}
			],
			"stateMutability": "view",
			"type": "function"
		},
		{
			"inputs": [
				{
					"internalType": "address",
					"name": "",
					"type": "address"
				}
			],
			"name": "votes",
			"outputs": [
				{
					"internalType": "uint256",
					"name": "",
					"type": "uint256"
				}
			],
			"stateMutability": "view",
			"type": "function"
		},
		{
			"inputs": [],
			"name": "votingActive",
			"outputs": [
				{
					"internalType": "bool",
					"name": "",
					"type": "bool"
				}
			],
			"stateMutability": "view",
			"type": "function"
		},
		{
			"inputs": [],
			"name": "votingEndTime",
			"outputs": [
				{
					"internalType": "uint256",
					"name": "",
					"type": "uint256"
				}
			],
			"stateMutability": "view",
			"type": "function"
		},
		{
			"inputs": [],
			"name": "votingStartTime",
			"outputs": [
				{
					"internalType": "uint256",
					"name": "",
					"type": "uint256"
				}
			],
			"stateMutability": "view",
			"type": "function"
		}
	]
}